{
  "contractName": "Argumentation",
  "abi": [
    {
      "inputs": [],
      "payable": false,
      "stateMutability": "nonpayable",
      "type": "constructor"
    },
    {
      "constant": false,
      "inputs": [
        {
          "name": "metadata",
          "type": "string"
        }
      ],
      "name": "insertArgument",
      "outputs": [
        {
          "name": "argId",
          "type": "uint256"
        }
      ],
      "payable": false,
      "stateMutability": "nonpayable",
      "type": "function"
    },
    {
      "constant": false,
      "inputs": [
        {
          "name": "argId",
          "type": "uint256"
        }
      ],
      "name": "supportArgument",
      "outputs": [],
      "payable": false,
      "stateMutability": "nonpayable",
      "type": "function"
    },
    {
      "constant": false,
      "inputs": [
        {
          "name": "sourceId",
          "type": "uint256"
        },
        {
          "name": "targetId",
          "type": "uint256"
        },
        {
          "name": "metadata",
          "type": "string"
        }
      ],
      "name": "insertAttack",
      "outputs": [
        {
          "name": "edgeId",
          "type": "uint256"
        }
      ],
      "payable": false,
      "stateMutability": "nonpayable",
      "type": "function"
    },
    {
      "constant": false,
      "inputs": [],
      "name": "pafReductionToAfPr3",
      "outputs": [
        {
          "name": "graphId",
          "type": "uint256"
        }
      ],
      "payable": false,
      "stateMutability": "nonpayable",
      "type": "function"
    },
    {
      "constant": true,
      "inputs": [
        {
          "name": "graphId",
          "type": "uint256"
        }
      ],
      "name": "getGraph",
      "outputs": [
        {
          "name": "nodes",
          "type": "uint256[]"
        },
        {
          "name": "edgesSource",
          "type": "uint256[]"
        },
        {
          "name": "edgesTarget",
          "type": "uint256[]"
        }
      ],
      "payable": false,
      "stateMutability": "view",
      "type": "function"
    }
  ],
  "bytecode": "0x608060405234801561001057600080fd5b5061002960008064010000000061090661002e82021704565b6101dc565b8015156100c257604080517f08c379a000000000000000000000000000000000000000000000000000000000815260206004820152602860248201527f556e6f7264657265644b65795365742831303029202d204b65792063616e6e6f60448201527f7420626520307830000000000000000000000000000000000000000000000000606482015290519081900360840190fd5b6100d58282640100000000610191810204565b1561016757604080517f08c379a000000000000000000000000000000000000000000000000000000000815260206004820152603560248201527f556e6f7264657265644b65795365742831303129202d204b657920616c72656160448201527f64792065786973747320696e20746865207365742e0000000000000000000000606482015290519081900360840190fd5b60018281018054918201815560009081526020808220830184905592815292909152604090912055565b600182015460009015156101a7575060006101d6565b60008281526020849052604090205460018401805484929081106101c757fe5b90600052602060002001541490505b92915050565b610c41806101eb6000396000f3fe608060405260043610610066577c0100000000000000000000000000000000000000000000000000000000600035046334142746811461006b57806399e3afe814610173578063a02e511014610244578063df3e140614610270578063fcc9106014610285575b600080fd5b34801561007757600080fd5b506100956004803603602081101561008e57600080fd5b5035610338565b60405180806020018060200180602001848103845287818151815260200191508051906020019060200280838360005b838110156100dd5781810151838201526020016100c5565b50505050905001848103835286818151815260200191508051906020019060200280838360005b8381101561011c578181015183820152602001610104565b50505050905001848103825285818151815260200191508051906020019060200280838360005b8381101561015b578181015183820152602001610143565b50505050905001965050505050505060405180910390f35b34801561017f57600080fd5b506102326004803603606081101561019657600080fd5b8135916020810135918101906060810160408201356401000000008111156101bd57600080fd5b8201836020820111156101cf57600080fd5b803590602001918460018302840111640100000000831117156101f157600080fd5b91908080601f0160208091040260200160405190810160405280939291908181526020018383808284376000920191909152509295506104bf945050505050565b60408051918252519081900360200190f35b34801561025057600080fd5b5061026e6004803603602081101561026757600080fd5b50356104f3565b005b34801561027c57600080fd5b5061023261053f565b34801561029157600080fd5b50610232600480360360208110156102a857600080fd5b8101906020810181356401000000008111156102c357600080fd5b8201836020820111156102d557600080fd5b803590602001918460018302840111640100000000831117156102f757600080fd5b91908080601f01602080910402602001604051908101604052809392919081815260200183838082843760009201919091525092955061069e945050505050565b600081815260026020526040812060609182918291610356826106f0565b90506000610366836003016106f0565b905081604051908082528060200260200182016040528015610392578160200160208202803883390190505b509550806040519080825280602002602001820160405280156103bf578160200160208202803883390190505b509450806040519080825280602002602001820160405280156103ec578160200160208202803883390190505b50935060005b6103fb846106f0565b81101561043257610412848263ffffffff6106f716565b875188908390811061042057fe5b602090810290910101526001016103f2565b5060005b610442846003016106f0565b8110156104b457600061045e600386018363ffffffff6106f716565b6000818152600587016020526040902080548951929350909189908590811061048357fe5b60209081029091010152600181015487518890859081106104a057fe5b602090810290910101525050600101610436565b505050509193909250565b60008080526002602052600080516020610bf68339815191526104ea8186868663ffffffff61071e16565b95945050505050565b600080526002602052600080516020610bf683398151915261051b818363ffffffff61088316565b33600090815260036020526040902061053a818463ffffffff61090616565b505050565b600061054b60006106f0565b905061055e60008263ffffffff61090616565b6002602052600081815260408120600080516020610bf6833981519152915b610589836003016106f0565b8110156106985760006105a5600385018363ffffffff6106f716565b60008181526005860160208181526040808420805480865260028b01909352818520600182015480875292862060048083015490820154989950929791969095929091111593909283916105f99190610a32565b8152602001908152602001600020905060008082600001541180610621575060008260010154115b9050828061062c5750805b15610685578554610644908a9063ffffffff610a4116565b600186015461065a908a9063ffffffff610a4116565b85546001870154604080516020810190915260008152610683928c92909163ffffffff61071e16565b505b50506001909501945061057d9350505050565b50505090565b60008080526002602052600080516020610bf68339815191526106c7818463ffffffff610aba16565b3360009081526003602052604090209092506106e9818463ffffffff61090616565b5050919050565b6001015490565b6000826001018281548110151561070a57fe5b906000526020600020015490505b92915050565b6000610730858563ffffffff610b1016565b1515610786576040805160e560020a62461bcd02815260206004820152601160248201527f556e6b6e6f776e20736f7572636549642e000000000000000000000000000000604482015290519081900360640190fd5b610796858463ffffffff610b1016565b15156107ec576040805160e560020a62461bcd02815260206004820152601160248201527f556e6b6e6f776e2074617267657449642e000000000000000000000000000000604482015290519081900360640190fd5b6107f68484610a32565b905061080b600386018263ffffffff61090616565b6000818152600586016020908152604090912083519091610833916002840191860190610b5a565b50848155600181018490556000858152600280880160205260408083208784529220906108689083018563ffffffff61090616565b610878818563ffffffff61090616565b505050949350505050565b610893828263ffffffff610b1016565b15156108e9576040805160e560020a62461bcd02815260206004820152600f60248201527f556e6b6e6f776e206e6f646549642e0000000000000000000000000000000000604482015290519081900360640190fd5b600090815260029091016020526040902060040180546001019055565b801515610983576040805160e560020a62461bcd02815260206004820152602860248201527f556e6f7264657265644b65795365742831303029202d204b65792063616e6e6f60448201527f7420626520307830000000000000000000000000000000000000000000000000606482015290519081900360840190fd5b61098d8282610b10565b15610a08576040805160e560020a62461bcd02815260206004820152603560248201527f556e6f7264657265644b65795365742831303129202d204b657920616c72656160448201527f64792065786973747320696e20746865207365742e0000000000000000000000606482015290519081900360840190fd5b60018281018054918201815560009081526020808220830184905592815292909152604090912055565b60029082016001810102040190565b610a51828263ffffffff610b1016565b15610aa6576040805160e560020a62461bcd02815260206004820152601460248201527f4e6f646520616c7265616479206578697374732e000000000000000000000000604482015290519081900360640190fd5b610ab6828263ffffffff61090616565b5050565b6000610ac5836106f0565b9050610ad7838263ffffffff61090616565b6000818152600284016020908152604090912083519091610aff916005840191860190610b5a565b506004018054600101905592915050565b60018201546000901515610b2657506000610718565b6000828152602084905260409020546001840180548492908110610b4657fe5b906000526020600020015414905092915050565b828054600181600116156101000203166002900490600052602060002090601f016020900481019282601f10610b9b57805160ff1916838001178555610bc8565b82800160010185558215610bc8579182015b82811115610bc8578251825591602001919060010190610bad565b50610bd4929150610bd8565b5090565b610bf291905b80821115610bd45760008155600101610bde565b9056feac33ff75c19e70fe83507db0d683fd3465c996598dc972688b7ace676c89077ba165627a7a72305820feb89616b78e7a11d0704caa1aa2fa2dff7157d6e34a1339c7e41ecfb836d0230029",
  "source": "// SPDX-License-Identifier: MIT\n\npragma solidity ^0.5.1;\n\nimport \"./DirectedGraph.sol\";\n\ncontract Argumentation {\n    using DirectedGraph for DirectedGraph.Graph;\n    using HitchensUnorderedKeySetLib for HitchensUnorderedKeySetLib.Set;\n\n    HitchensUnorderedKeySetLib.Set graphsIds;\n    mapping(uint256 => DirectedGraph.Graph) graphs;\n\n    // Arguments Sets\n    mapping(address => HitchensUnorderedKeySetLib.Set) agentsArguments;\n\n    constructor() public {\n        graphsIds.insert(bytes32(0));\n    }\n\n    function insertArgument(string memory metadata)\n        public\n        returns (uint256 argId)\n    {\n        DirectedGraph.Graph storage graph = graphs[0];\n        argId = graph.insertNode(metadata);\n\n        HitchensUnorderedKeySetLib.Set storage agentArgs =\n            agentsArguments[msg.sender];\n        agentArgs.insert(bytes32(argId));\n    }\n\n    function supportArgument(uint256 argId) public {\n        DirectedGraph.Graph storage graph = graphs[0];\n        graph.incrementValue(argId);\n\n        HitchensUnorderedKeySetLib.Set storage agentArgs =\n            agentsArguments[msg.sender];\n        agentArgs.insert(bytes32(argId));\n    }\n\n    function insertAttack(\n        uint256 sourceId,\n        uint256 targetId,\n        string memory metadata\n    ) public returns (uint256 edgeId) {\n        DirectedGraph.Graph storage graph = graphs[0];\n        edgeId = graph.insertEdge(sourceId, targetId, metadata);\n    }\n\n    function pafReductionToAfPr3() public returns (uint256 graphId) {\n        graphId = graphsIds.count();\n        graphsIds.insert(bytes32(graphId));\n\n        DirectedGraph.Graph storage paf = graphs[0];\n        DirectedGraph.Graph storage af = graphs[graphId];\n\n        for (uint256 i = 0; i < paf.edgesIds.count(); i++) {\n            uint256 edgeId = uint256(paf.edgesIds.keyAtIndex(i));\n            DirectedGraph.Edge storage edge = paf.edges[edgeId];\n\n            DirectedGraph.Node storage s = paf.nodes[edge.source];\n            DirectedGraph.Node storage t = paf.nodes[edge.target];\n            bool notBpreferredToA = !(t.value > s.value);\n\n            DirectedGraph.Edge storage edgeReverse =\n                paf.edges[\n                    DirectedGraph.cantorPairing(edge.target, edge.source)\n                ];\n            bool notBtoA = edgeReverse.source > 0 || edgeReverse.target > 0; //TODO check edges ids\n\n            if (notBpreferredToA || notBtoA) {\n                //insert to af\n                af.insertNodeWithId(edge.source);\n                af.insertNodeWithId(edge.target);\n                af.insertEdge(edge.source, edge.target, \"\");\n            }\n        }\n    }\n\n    function getGraph(uint256 graphId)\n        public\n        view\n        returns (\n            uint256[] memory nodes,\n            uint256[] memory edgesSource,\n            uint256[] memory edgesTarget\n        )\n    {\n        DirectedGraph.Graph storage graph = graphs[graphId];\n        uint256 nodesCount = graph.nodesIds.count();\n        uint256 edgesCount = graph.edgesIds.count();\n\n        nodes = new uint256[](nodesCount);\n        edgesSource = new uint256[](edgesCount);\n        edgesTarget = new uint256[](edgesCount);\n\n        for (uint256 i = 0; i < graph.nodesIds.count(); i++) {\n            nodes[i] = uint256(graph.nodesIds.keyAtIndex(i));\n        }\n\n        for (uint256 i = 0; i < graph.edgesIds.count(); i++) {\n            uint256 edgeId = uint256(graph.edgesIds.keyAtIndex(i));\n            DirectedGraph.Edge storage edge = graph.edges[edgeId];\n            edgesSource[i] = edge.source;\n            edgesTarget[i] = edge.target;\n        }\n    }\n}\n",
  "sourcePath": "/home/miker/workspace/others/IHiBO/contracts/Argumentation.sol",
  "compiler": {
    "name": "solc",
    "version": "0.5.1+commit.c8a2cb62.Emscripten.clang"
  },
  "schemaVersion": "3.4.1",
  "updatedAt": "2021-06-14T19:52:55.033Z",
  "devdoc": {
    "methods": {}
  },
  "userdoc": {
    "methods": {}
  }
}