{
  "contractName": "Argumentation",
  "abi": [
    {
      "inputs": [],
      "payable": false,
      "stateMutability": "nonpayable",
      "type": "constructor"
    },
    {
      "anonymous": false,
      "inputs": [
        {
          "indexed": false,
          "name": "args",
          "type": "uint256[]"
        }
      ],
      "name": "PreferredExtensions",
      "type": "event"
    },
    {
      "constant": false,
      "inputs": [
        {
          "name": "metadata",
          "type": "string"
        }
      ],
      "name": "insertArgument",
      "outputs": [
        {
          "name": "argId",
          "type": "uint256"
        }
      ],
      "payable": false,
      "stateMutability": "nonpayable",
      "type": "function"
    },
    {
      "constant": false,
      "inputs": [
        {
          "name": "argId",
          "type": "uint256"
        }
      ],
      "name": "supportArgument",
      "outputs": [],
      "payable": false,
      "stateMutability": "nonpayable",
      "type": "function"
    },
    {
      "constant": false,
      "inputs": [
        {
          "name": "sourceId",
          "type": "uint256"
        },
        {
          "name": "targetId",
          "type": "uint256"
        },
        {
          "name": "metadata",
          "type": "string"
        }
      ],
      "name": "insertAttack",
      "outputs": [
        {
          "name": "edgeId",
          "type": "uint256"
        }
      ],
      "payable": false,
      "stateMutability": "nonpayable",
      "type": "function"
    },
    {
      "constant": false,
      "inputs": [],
      "name": "pafReductionToAfPr1",
      "outputs": [
        {
          "name": "graphId",
          "type": "uint256"
        }
      ],
      "payable": false,
      "stateMutability": "nonpayable",
      "type": "function"
    },
    {
      "constant": false,
      "inputs": [],
      "name": "pafReductionToAfPr3",
      "outputs": [
        {
          "name": "graphId",
          "type": "uint256"
        }
      ],
      "payable": false,
      "stateMutability": "nonpayable",
      "type": "function"
    },
    {
      "constant": true,
      "inputs": [
        {
          "name": "graphId",
          "type": "uint256"
        }
      ],
      "name": "getGraph",
      "outputs": [
        {
          "name": "nodes",
          "type": "uint256[]"
        },
        {
          "name": "edgesSource",
          "type": "uint256[]"
        },
        {
          "name": "edgesTarget",
          "type": "uint256[]"
        }
      ],
      "payable": false,
      "stateMutability": "view",
      "type": "function"
    },
    {
      "constant": false,
      "inputs": [
        {
          "name": "graphId",
          "type": "uint256"
        }
      ],
      "name": "enumeratingPreferredExtensions",
      "outputs": [
        {
          "name": "args",
          "type": "uint256[]"
        }
      ],
      "payable": false,
      "stateMutability": "nonpayable",
      "type": "function"
    }
  ],
  "bytecode": "0x60806040523480156200001157600080fd5b506200002e6000600164010000000062000aa26200003482021704565b620001e9565b801515620000c957604080517f08c379a000000000000000000000000000000000000000000000000000000000815260206004820152602860248201527f556e6f7264657265644b65795365742831303029202d204b65792063616e6e6f60448201527f7420626520307830000000000000000000000000000000000000000000000000606482015290519081900360840190fd5b620000de82826401000000006200019b810204565b156200017157604080517f08c379a000000000000000000000000000000000000000000000000000000000815260206004820152603560248201527f556e6f7264657265644b65795365742831303129202d204b657920616c72656160448201527f64792065786973747320696e20746865207365742e0000000000000000000000606482015290519081900360840190fd5b60018281018054918201815560009081526020808220830184905592815292909152604090912055565b60018201546000901515620001b357506000620001e3565b6000828152602084905260409020546001840180548492908110620001d457fe5b90600052602060002001541490505b92915050565b611cc280620001f96000396000f3fe60806040526004361061007c577c010000000000000000000000000000000000000000000000000000000060003504632defc54e811461008157806334142746146100a85780636f14487a146101b057806399e3afe81461022a578063a02e5110146102e9578063df3e140614610315578063fcc910601461032a575b600080fd5b34801561008d57600080fd5b506100966103dd565b60408051918252519081900360200190f35b3480156100b457600080fd5b506100d2600480360360208110156100cb57600080fd5b5035610529565b60405180806020018060200180602001848103845287818151815260200191508051906020019060200280838360005b8381101561011a578181015183820152602001610102565b50505050905001848103835286818151815260200191508051906020019060200280838360005b83811015610159578181015183820152602001610141565b50505050905001848103825285818151815260200191508051906020019060200280838360005b83811015610198578181015183820152602001610180565b50505050905001965050505050505060405180910390f35b3480156101bc57600080fd5b506101da600480360360208110156101d357600080fd5b50356106b0565b60408051602080825283518183015283519192839290830191858101910280838360005b838110156102165781810151838201526020016101fe565b505050509050019250505060405180910390f35b34801561023657600080fd5b506100966004803603606081101561024d57600080fd5b81359160208101359181019060608101604082013564010000000081111561027457600080fd5b82018360208201111561028657600080fd5b803590602001918460018302840111640100000000831117156102a857600080fd5b91908080601f016020809104026020016040519081016040528093929190818152602001838380828437600092019190915250929550610832945050505050565b3480156102f557600080fd5b506103136004803603602081101561030c57600080fd5b5035610868565b005b34801561032157600080fd5b506100966108b5565b34801561033657600080fd5b506100966004803603602081101561034d57600080fd5b81019060208101813564010000000081111561036857600080fd5b82018360208201111561037a57600080fd5b8035906020019184600183028401116401000000008311171561039c57600080fd5b91908080601f016020809104026020016040519081016040528093929190818152602001838380828437600092019190915250929550610a47945050505050565b60006103e96000610a9b565b60010190506103ff60008263ffffffff610aa216565b6002602052600081815260408120600080516020611c77833981519152915b61042a83600301610a9b565b811015610523576000610446600385018363ffffffff610bce16565b60008181526005860160209081526040808320805484526002890190925280832060018301548452922060048084015490820154949550919390911080159061051257835461049c90889063ffffffff610bf516565b15156104b55783546104b590889063ffffffff610c3f16565b60018401546104cb90889063ffffffff610bf516565b15156104e75760018401546104e790889063ffffffff610c3f16565b83546001850154604080516020810190915260008152610510928a92909163ffffffff610cb816565b505b50506001909301925061041e915050565b50505090565b60008181526002602052604081206060918291829161054782610a9b565b9050600061055783600301610a9b565b905081604051908082528060200260200182016040528015610583578160200160208202803883390190505b509550806040519080825280602002602001820160405280156105b0578160200160208202803883390190505b509450806040519080825280602002602001820160405280156105dd578160200160208202803883390190505b50935060005b6105ec84610a9b565b81101561062357610603848263ffffffff610bce16565b875188908390811061061157fe5b602090810290910101526001016105e3565b5060005b61063384600301610a9b565b8110156106a557600061064f600386018363ffffffff610bce16565b6000818152600587016020526040902080548951929350909189908590811061067457fe5b602090810290910101526001810154875188908590811061069157fe5b602090810290910101525050600101610627565b505050509193909250565b6000818152600260209081526040808320600654845260078352818420600454855260059093529083206060939192915b6106ea84610a9b565b81101561071c57610713610704858363ffffffff610bce16565b8390600363ffffffff610e1d16565b506001016106e1565b5060048054600180820190925560068054928301905561073c9187610e3f565b61074582610a9b565b60405190808252806020026020018201604052801561076e578160200160208202803883390190505b50935060005b61077d83610a9b565b8110156107b457610794838263ffffffff610bce16565b85518690839081106107a257fe5b60209081029091010152600101610774565b507f300a3be7ae677594a5a86baad0f39c1cab903a393d44e74e6c26578339f21e94846040518080602001828103825283818151815260200191508051906020019060200280838360005b838110156108175781810151838201526020016107ff565b505050509050019250505060405180910390a1505050919050565b600160009081526002602052600080516020611c7783398151915261085f8186868663ffffffff610cb816565b95945050505050565b60016000526002602052600080516020611c77833981519152610891818363ffffffff6116ab16565b3360009081526003602052604090206108b0818463ffffffff610aa216565b505050565b60006108c16000610a9b565b60010190506108d760008263ffffffff610aa216565b6002602052600081815260408120600080516020611c77833981519152915b61090283600301610a9b565b81101561052357600061091e600385018363ffffffff610bce16565b60008181526005860160208181526040808420805480865260028b0190935281852060018201548087529286206004808301549082015498995092979196909592909111159390928391610972919061172e565b81526020019081526020016000209050600080826000015411801561099b575060008260010154115b905082806109a65750805b15610a345785546109be908a9063ffffffff610bf516565b15156109d75785546109d7908a9063ffffffff610c3f16565b60018601546109ed908a9063ffffffff610bf516565b1515610a09576001860154610a09908a9063ffffffff610c3f16565b85546001870154604080516020810190915260008152610a32928c92909163ffffffff610cb816565b505b5050600190950194506108f69350505050565b600160009081526002602052600080516020611c77833981519152610a72818463ffffffff61173d16565b336000908152600360205260409020909250610a94818463ffffffff610aa216565b5050919050565b6001015490565b801515610b1f576040805160e560020a62461bcd02815260206004820152602860248201527f556e6f7264657265644b65795365742831303029202d204b65792063616e6e6f60448201527f7420626520307830000000000000000000000000000000000000000000000000606482015290519081900360840190fd5b610b298282610bf5565b15610ba4576040805160e560020a62461bcd02815260206004820152603560248201527f556e6f7264657265644b65795365742831303129202d204b657920616c72656160448201527f64792065786973747320696e20746865207365742e0000000000000000000000606482015290519081900360840190fd5b60018281018054918201815560009081526020808220830184905592815292909152604090912055565b60008260010182815481101515610be157fe5b906000526020600020015490505b92915050565b60018201546000901515610c0b57506000610bef565b6000828152602084905260409020546001840180548492908110610c2b57fe5b906000526020600020015414905092915050565b610c4f828263ffffffff610bf516565b15610ca4576040805160e560020a62461bcd02815260206004820152601460248201527f4e6f646520616c7265616479206578697374732e000000000000000000000000604482015290519081900360640190fd5b610cb4828263ffffffff610aa216565b5050565b6000610cca858563ffffffff610bf516565b1515610d20576040805160e560020a62461bcd02815260206004820152601160248201527f556e6b6e6f776e20736f7572636549642e000000000000000000000000000000604482015290519081900360640190fd5b610d30858463ffffffff610bf516565b1515610d86576040805160e560020a62461bcd02815260206004820152601160248201527f556e6b6e6f776e2074617267657449642e000000000000000000000000000000604482015290519081900360640190fd5b610d90848461172e565b9050610da5600386018263ffffffff610aa216565b6000818152600586016020908152604090912083519091610dcd916002840191860190611bdb565b5084815560018101849055600085815260028088016020526040808320878452922090610e029083018563ffffffff610aa216565b610e12818563ffffffff610aa216565b505050949350505050565b6000610e358484846004811115610e3057fe5b611796565b90505b9392505050565b600081815260026020908152604080832086845260059283905292819020815183815260c0810190925291606091908160200160208202803883390190505090505b806000815181101515610e9057fe5b9060200190602002015115156115ff5760606000610ead88611830565b909250905060008111610edf576001836000815181101515610ecb57fe5b9115156020928302909101909101526115f8565b8251600090819085906001908110610ef357fe5b91151560209283029091019091015260005b8281108015610f2a5750846001815181101515610f1e57fe5b90602001906020020151155b15611096578381815181101515610f3d57fe5b602090810290910181015160008181526002808b019093526040812088519295509290918891908110610f6c57fe5b91151560209283029091019091015260005b610f8782610a9b565b81108015610fab5750866002815181101515610f9f57fe5b90602001906020020151155b1561105457600060058a0181610fc7858563ffffffff610bce16565b81526020810191909152604001600020905060018154610fee908b9063ffffffff6118e216565b6004811115610ff957fe5b14158015611025575060048154611017908b9063ffffffff6118e216565b600481111561102257fe5b14155b1561104b57600188600281518110151561103b57fe5b9115156020928302909101909101525b50600101610f7e565b5085600281518110151561106457fe5b906020019060200201511586600181518110151561107e57fe5b91151560209283029091019091015250600101610f05565b508360018151811015156110a657fe5b9060200190602002015115156111a1576000805b8381101561119e57600088600201600087848151811015156110d857fe5b6020908102909101810151825281019190915260400160009081209150805b61110383600201610a9b565b81101561116d57600060058c0181611124600287018563ffffffff610bce16565b81526020810191909152604001600020905060018082015461114d908d9063ffffffff6118e216565b600481111561115857fe5b14611164576001909201915b506001016110f7565b508381111561119457809350868381518110151561118757fe5b9060200190602002015194505b50506001016110ba565b50505b60048054600181019091556000818152600560205260408120905b6111c5886118f9565b811015611200576000806111df8a8463ffffffff61190416565b90925090506111f584838363ffffffff610e1d16565b5050506001016111bc565b506112138184600063ffffffff610e1d16565b5060008381526002890160205260408120905b61123282600201610a9b565b81101561128757600060058b0181611253600286018563ffffffff610bce16565b8152602081019190915260400160002060018181015491925061127d91869163ffffffff610e1d16565b5050600101611226565b50600087600381518110151561129957fe5b91151560209283029091019091015260005b6112b482610a9b565b811080156112d857508760038151811015156112cc57fe5b90602001906020020151155b1561148857600060058b01816112f4858563ffffffff610bce16565b8152602081019190915260400160002090506002815461131b90869063ffffffff6118e216565b600481111561132657fe5b148061134f57506003815461134290869063ffffffff6118e216565b600481111561134d57fe5b145b1561147f578054611369908590600463ffffffff610e1d16565b508054600090815260028c016020526040902089516001908b90600390811061138e57fe5b91151560209283029091019091015260005b6113a982610a9b565b811080156113cc57508a60038151811015156113c157fe5b906020019060200201515b1561144a57600060058e01816113e8858563ffffffff610bce16565b8152602081019190915260400160002090506003815461140f90899063ffffffff6118e216565b600481111561141a57fe5b14156114415760008c600381518110151561143157fe5b9115156020928302909101909101525b506001016113a0565b5089600381518110151561145a57fe5b906020019060200201511561147d5761147b8b88600263ffffffff610e1d16565b505b505b506001016112ab565b5086600381518110151561149857fe5b9060200190602002015115156115f3576114b3838c8c610e3f565b60008760048151811015156114c457fe5b91151560209283029091019091015260005b6114df82610a9b565b8110801561150357508760048151811015156114f757fe5b90602001906020020151155b156115bc57600060058b018161151f858563ffffffff610bce16565b81526020810191909152604001600020905060028154611546908c9063ffffffff6118e216565b600481111561155157fe5b148061157a57506003815461156d908c9063ffffffff6118e216565b600481111561157857fe5b145b156115b3576115918a87600463ffffffff610e1d16565b5060018960048151811015156115a357fe5b9115156020928302909101909101525b506001016114d6565b508660048151811015156115cc57fe5b9060200190602002015115156115f3576000838152600560205260409020929b509196508a915b505050505b5050610e81565b600061160a87611932565b915050600081116116a25760606000611622896119dd565b60008a81526007602052604081209294509092505b8281101561169d57611667848281518110151561165057fe5b60209081029091010151839063ffffffff610bf516565b151561169557611695848281518110151561167e57fe5b60209081029091010151839063ffffffff610aa216565b600101611637565b505050505b50505050505050565b6116bb828263ffffffff610bf516565b1515611711576040805160e560020a62461bcd02815260206004820152600f60248201527f556e6b6e6f776e206e6f646549642e0000000000000000000000000000000000604482015290519081900360640190fd5b600090815260029091016020526040902060040180546001019055565b60029082016001810102040190565b600061174883610a9b565b600101905061175d838263ffffffff610aa216565b6000818152600284016020908152604090912083519091611785916005840191860190611bdb565b506004018054600101905592915050565b60008281526001840160205260408120548015156117fd575050604080518082018252838152602080820184815286546001818101895560008981528481209551600290930290950191825591519082015586548684528188019092529290912055610e38565b845483908690600019840190811061181157fe5b9060005260206000209060020201600101819055506000915050610e38565b60008181526005602052604081206060919061184b816118f9565b604051908082528060200260200182016040528015611874578160200160208202803883390190505b50925060009150815b83518110156118db57600080611899848463ffffffff61190416565b909250905060038160048111156118ac57fe5b14156118d15785516001860195839188919081106118c657fe5b602090810290910101525b505060010161187d565b5050915091565b60006118ee8383611a88565b6004811115610e3857fe5b6000610bef82611b1d565b60008080806119138686611b21565b90925090508181600481111561192557fe5b9350935050509250929050565b60008181526005602052604081206060919061194d816118f9565b604051908082528060200260200182016040528015611976578160200160208202803883390190505b50925060009150815b83518110156118db5760008061199b848463ffffffff61190416565b909250905060048160048111156119ae57fe5b14156119d35785516001860195839188919081106119c857fe5b602090810290910101525b505060010161197f565b6000818152600560205260408120606091906119f8816118f9565b604051908082528060200260200182016040528015611a21578160200160208202803883390190505b50925060009150815b83518110156118db57600080611a46848463ffffffff61190416565b90925090506000816004811115611a5957fe5b1415611a7e578551600186019583918891908110611a7357fe5b602090810290910101525b5050600101611a2a565b6000818152600183016020526040812054801515611af0576040805160e560020a62461bcd02815260206004820152601e60248201527f456e756d657261626c654d61703a206e6f6e6578697374656e74206b65790000604482015290519081900360640190fd5b835484906000198301908110611b0257fe5b90600052602060002090600202016001015491505092915050565b5490565b815460009081908310611ba4576040805160e560020a62461bcd02815260206004820152602260248201527f456e756d657261626c654d61703a20696e646578206f7574206f6620626f756e60448201527f6473000000000000000000000000000000000000000000000000000000000000606482015290519081900360840190fd5b8354600090859085908110611bb557fe5b906000526020600020906002020190508060000154816001015492509250509250929050565b828054600181600116156101000203166002900490600052602060002090601f016020900481019282601f10611c1c57805160ff1916838001178555611c49565b82800160010185558215611c49579182015b82811115611c49578251825591602001919060010190611c2e565b50611c55929150611c59565b5090565b611c7391905b80821115611c555760008155600101611c5f565b9056fee90b7bceb6e7df5418fb78d8ee546e97c83a08bbccc01a0644d599ccd2a7c2e0a165627a7a72305820d8cb36808246cc277d4aedc91de8a6c32dc85842367912a4cd8727db085df8ac0029",
  "source": "// SPDX-License-Identifier: MIT\r\n\r\npragma solidity ^0.5.1;\r\n\r\nimport \"./DirectedGraph.sol\";\r\nimport \"./EnumerableMap.sol\";\r\n\r\ncontract Argumentation {\r\n    using DirectedGraph for DirectedGraph.Graph;\r\n    using HitchensUnorderedKeySetLib for HitchensUnorderedKeySetLib.Set;\r\n    using EMap for EMap.LabelMap;\r\n\r\n    HitchensUnorderedKeySetLib.Set graphsIds;\r\n    mapping(uint256 => DirectedGraph.Graph) graphs;\r\n\r\n    // Arguments Sets\r\n    mapping(address => HitchensUnorderedKeySetLib.Set) agentsArguments;\r\n\r\n    uint256 labsNum;\r\n    mapping(uint256 => EMap.LabelMap) labs;\r\n    uint256 prefExtensionsNum;\r\n    mapping(uint256 => HitchensUnorderedKeySetLib.Set) prefExtensions;\r\n\r\n    event PreferredExtensions(uint256[] args);\r\n\r\n    constructor() public {\r\n        graphsIds.insert(bytes32(uint256(1)));\r\n    }\r\n\r\n    function insertArgument(string memory metadata)\r\n        public\r\n        returns (uint256 argId)\r\n    {\r\n        DirectedGraph.Graph storage graph = graphs[1];\r\n        argId = graph.insertNode(metadata);\r\n\r\n        HitchensUnorderedKeySetLib.Set storage agentArgs = agentsArguments[\r\n            msg.sender\r\n        ];\r\n        agentArgs.insert(bytes32(argId));\r\n    }\r\n\r\n    function supportArgument(uint256 argId) public {\r\n        DirectedGraph.Graph storage graph = graphs[1];\r\n        graph.incrementValue(argId);\r\n\r\n        HitchensUnorderedKeySetLib.Set storage agentArgs = agentsArguments[\r\n            msg.sender\r\n        ];\r\n        agentArgs.insert(bytes32(argId));\r\n    }\r\n\r\n    function insertAttack(\r\n        uint256 sourceId,\r\n        uint256 targetId,\r\n        string memory metadata\r\n    ) public returns (uint256 edgeId) {\r\n        DirectedGraph.Graph storage graph = graphs[1];\r\n        edgeId = graph.insertEdge(sourceId, targetId, metadata);\r\n    }\r\n\r\n    function pafReductionToAfPr1() public returns (uint256 graphId) {\r\n        graphId = graphsIds.count() + 1;\r\n        graphsIds.insert(bytes32(graphId));\r\n\r\n        DirectedGraph.Graph storage paf = graphs[1];\r\n        DirectedGraph.Graph storage af = graphs[graphId];\r\n\r\n        for (uint256 i = 0; i < paf.edgesIds.count(); i++) {\r\n            uint256 edgeId = uint256(paf.edgesIds.keyAtIndex(i));\r\n            DirectedGraph.Edge storage edge = paf.edges[edgeId];\r\n\r\n            DirectedGraph.Node storage s = paf.nodes[edge.source];\r\n            DirectedGraph.Node storage t = paf.nodes[edge.target];\r\n            bool notBpreferredToA = !(t.value > s.value);\r\n\r\n            // for (uint256 j = 0; j < paf.nodesIds.count(); j++) {\r\n            //     af.insertNodeWithId(j+1);\r\n            // }\r\n\r\n            if (notBpreferredToA) { // [Vincent: all args should be ported over.\r\n                //insert to af\r\n                if (!af.nodesIds.exists(bytes32(edge.source))) {\r\n                    af.insertNodeWithId(edge.source);\r\n                }\r\n                if (!af.nodesIds.exists(bytes32(edge.target))) {\r\n                    af.insertNodeWithId(edge.target);\r\n                }\r\n                af.insertEdge(edge.source, edge.target, \"\");\r\n            }\r\n        }\r\n    }\r\n\r\n    function pafReductionToAfPr3() public returns (uint256 graphId) {\r\n        graphId = graphsIds.count() + 1;\r\n        graphsIds.insert(bytes32(graphId));\r\n\r\n        DirectedGraph.Graph storage paf = graphs[1];\r\n        DirectedGraph.Graph storage af = graphs[graphId];\r\n\r\n        for (uint256 i = 0; i < paf.edgesIds.count(); i++) {\r\n            uint256 edgeId = uint256(paf.edgesIds.keyAtIndex(i));\r\n            DirectedGraph.Edge storage edge = paf.edges[edgeId];\r\n\r\n            DirectedGraph.Node storage s = paf.nodes[edge.source];\r\n            DirectedGraph.Node storage t = paf.nodes[edge.target];\r\n            bool notBpreferredToA = !(t.value > s.value);\r\n\r\n            DirectedGraph.Edge storage edgeReverse = paf.edges[\r\n                DirectedGraph.cantorPairing(edge.target, edge.source)\r\n            ];\r\n            bool notBtoA = edgeReverse.source > 0 && edgeReverse.target > 0;\r\n\r\n            // for (uint256 j = 0; j < paf.nodesIds.count(); j++) {\r\n            //     af.insertNodeWithId(j+1);\r\n            // }\r\n\r\n            if (notBpreferredToA || notBtoA) { // [Vincent: node should be considered to be added regardless of this if]\r\n                // insert to af\r\n                if (!af.nodesIds.exists(bytes32(edge.source))) {\r\n                    af.insertNodeWithId(edge.source);\r\n                }\r\n                if (!af.nodesIds.exists(bytes32(edge.target))) {\r\n                    af.insertNodeWithId(edge.target);\r\n                }\r\n                af.insertEdge(edge.source, edge.target, \"\");\r\n            }\r\n        }\r\n    }\r\n\r\n    function getGraph(uint256 graphId)\r\n        public\r\n        view\r\n        returns (\r\n            uint256[] memory nodes,\r\n            uint256[] memory edgesSource,\r\n            uint256[] memory edgesTarget\r\n        )\r\n    {\r\n        DirectedGraph.Graph storage graph = graphs[graphId];\r\n        uint256 nodesCount = graph.nodesIds.count();\r\n        uint256 edgesCount = graph.edgesIds.count();\r\n\r\n        nodes = new uint256[](nodesCount);\r\n        edgesSource = new uint256[](edgesCount);\r\n        edgesTarget = new uint256[](edgesCount);\r\n\r\n        for (uint256 i = 0; i < graph.nodesIds.count(); i++) {\r\n            nodes[i] = uint256(graph.nodesIds.keyAtIndex(i));\r\n        }\r\n\r\n        for (uint256 i = 0; i < graph.edgesIds.count(); i++) {\r\n            uint256 edgeId = uint256(graph.edgesIds.keyAtIndex(i));\r\n            DirectedGraph.Edge storage edge = graph.edges[edgeId];\r\n            edgesSource[i] = edge.source;\r\n            edgesTarget[i] = edge.target;\r\n        }\r\n    }\r\n\r\n    function enumeratingPreferredExtensions(uint256 graphId)\r\n        public\r\n        returns (uint256[] memory args)\r\n    {\r\n        DirectedGraph.Graph storage graph = graphs[graphId];\r\n        HitchensUnorderedKeySetLib.Set storage ext = prefExtensions[\r\n            prefExtensionsNum\r\n        ];\r\n        EMap.LabelMap storage lab = labs[labsNum];\r\n        for (uint256 i = 0; i < graph.nodesIds.count(); i++) {\r\n            lab.set(uint256(graph.nodesIds.keyAtIndex(i)), EMap.Label.BLANK);\r\n        }\r\n        _findPreferredExtensions(labsNum++, prefExtensionsNum++, graphId);\r\n\r\n        args = new uint256[](ext.count());\r\n        for (uint256 i = 0; i < ext.count(); i++) {\r\n            args[i] = uint256(ext.keyAtIndex(i));\r\n        }\r\n\r\n        emit PreferredExtensions(args);\r\n    }\r\n\r\n    function _findPreferredExtensions(\r\n        uint256 labId,\r\n        uint256 prefExtensionId,\r\n        uint256 graphId\r\n    ) private {\r\n        DirectedGraph.Graph storage graph = graphs[graphId];\r\n        EMap.LabelMap storage lab = labs[labId];\r\n        bool[] memory flags = new bool[](5);\r\n\r\n        // while y  A : Lab(y) = BLANK do\r\n        while (!flags[0]) {\r\n            (uint256[] memory argIds, uint256 argIdsLen) = _getBlank(labId);\r\n            if (argIdsLen <= 0) {\r\n                flags[0] = true;\r\n            } else {\r\n                uint256 y = 0;\r\n                // select y with Lab(y) = BLANK and z  {y} Lab(z)  {OUT, MUST_OUT}\r\n                flags[1] = false;\r\n                for (uint256 i = 0; i < argIdsLen && !flags[1]; i++) {\r\n                    y = argIds[i];\r\n                    DirectedGraph.Node storage y_temp = graph.nodes[y];\r\n                    flags[2] = false;\r\n                    for (\r\n                        uint256 j = 0;\r\n                        j < y_temp.edgesIn.count() && !flags[2];\r\n                        j++\r\n                    ) {\r\n                        DirectedGraph.Edge storage edge = graph.edges[\r\n                            uint256(y_temp.edgesIn.keyAtIndex(j))\r\n                        ];\r\n                        if (\r\n                            lab.get(edge.source) != EMap.Label.OUT &&\r\n                            lab.get(edge.source) != EMap.Label.MUST_OUT\r\n                        ) {\r\n                            flags[2] = true;\r\n                        }\r\n                    }\r\n                    flags[1] = !flags[2];\r\n                }\r\n\r\n                // otherwise select y with Lab(y) = BLANK s.t. z  A : Lab(z) = BLANK,\r\n                //|{x : x  {y}+  Lab(x)!= OUT }|  |{x : x  {z}+  Lab(x) != OUT }|;\r\n                if (!flags[1]) {\r\n                    uint256 max = 0;\r\n                    for (uint256 i = 0; i < argIdsLen; i++) {\r\n                        DirectedGraph.Node storage y_temp = graph.nodes[\r\n                            argIds[i]\r\n                        ];\r\n                        uint256 y_temp_num = 0;\r\n                        for (uint256 j = 0; j < y_temp.edgesOut.count(); j++) {\r\n                            DirectedGraph.Edge storage edge = graph.edges[\r\n                                uint256(y_temp.edgesOut.keyAtIndex(j))\r\n                            ];\r\n                            if (lab.get(edge.target) != EMap.Label.OUT) {\r\n                                y_temp_num++;\r\n                            }\r\n                        }\r\n                        if (y_temp_num > max) {\r\n                            max = y_temp_num;\r\n                            y = argIds[i];\r\n                        }\r\n                    }\r\n                }\r\n                // Lab  Lab;\r\n                uint256 lab1Id = labsNum++;\r\n                EMap.LabelMap storage lab1 = labs[lab1Id];\r\n                for (uint256 i = 0; i < lab.length(); i++) {\r\n                    (uint256 arg, EMap.Label argLabel) = lab.at(i);\r\n                    lab1.set(arg, argLabel);\r\n                }\r\n                // Lab (y)  IN;\r\n                lab1.set(y, EMap.Label.IN);\r\n                // foreach z  {y}+ do Lab(z)  OUT ;\r\n                DirectedGraph.Node storage y_node = graph.nodes[y];\r\n                for (uint256 j = 0; j < y_node.edgesOut.count(); j++) {\r\n                    DirectedGraph.Edge storage edge = graph.edges[\r\n                        uint256(y_node.edgesOut.keyAtIndex(j))\r\n                    ];\r\n                    lab1.set(edge.target, EMap.Label.OUT);\r\n                }\r\n                // foreach z  {y} do\r\n                flags[3] = false;\r\n                for (\r\n                    uint256 j = 0;\r\n                    j < y_node.edgesIn.count() && !flags[3];\r\n                    j++\r\n                ) {\r\n                    DirectedGraph.Edge storage edge = graph.edges[\r\n                        uint256(y_node.edgesIn.keyAtIndex(j))\r\n                    ];\r\n                    // if Lab (z)  {UNDEC, BLANK} then Lab (z)  MUST OUT ;\r\n                    if (\r\n                        lab1.get(edge.source) == EMap.Label.UNDEC ||\r\n                        lab1.get(edge.source) == EMap.Label.BLANK\r\n                    ) {\r\n                        lab1.set(edge.source, EMap.Label.MUST_OUT);\r\n                        // if !w  {z} : Lab (w) = BLANK then Lab(y)  UNDEC;\r\n                        DirectedGraph.Node storage z_node = graph.nodes[\r\n                            edge.source\r\n                        ];\r\n                        flags[3] = true;\r\n                        for (\r\n                            uint256 k = 0;\r\n                            k < z_node.edgesIn.count() && flags[3];\r\n                            k++\r\n                        ) {\r\n                            DirectedGraph.Edge storage edgeZ = graph.edges[\r\n                                uint256(z_node.edgesIn.keyAtIndex(k))\r\n                            ];\r\n                            if (lab1.get(edgeZ.source) == EMap.Label.BLANK) {\r\n                                flags[3] = false;\r\n                            }\r\n                        }\r\n                        if (flags[3]) {\r\n                            lab.set(y, EMap.Label.UNDEC);\r\n                            // goto line 7;\r\n                        }\r\n                    }\r\n                }\r\n                if (!flags[3]) {\r\n                    // call find-preferred-extensions(Lab );\r\n                    _findPreferredExtensions(lab1Id, prefExtensionId, graphId);\r\n                    //if z  {y} : Lab(z)  {BLANK,UNDEC} then Lab(y)  UNDEC;\r\n                    flags[4] = false;\r\n                    for (\r\n                        uint256 j = 0;\r\n                        j < y_node.edgesIn.count() && !flags[4];\r\n                        j++\r\n                    ) {\r\n                        DirectedGraph.Edge storage edge = graph.edges[\r\n                            uint256(y_node.edgesIn.keyAtIndex(j))\r\n                        ];\r\n                        // if Lab (z)  {UNDEC, BLANK} then Lab (z)  MUST OUT ;\r\n                        if (\r\n                            lab.get(edge.source) == EMap.Label.UNDEC ||\r\n                            lab.get(edge.source) == EMap.Label.BLANK\r\n                        ) {\r\n                            lab.set(y, EMap.Label.MUST_OUT);\r\n                            flags[4] = true;\r\n                        }\r\n                    }\r\n                    // else Lab  Lab ;\r\n                    if (!flags[4]) {\r\n                        lab = labs[lab1Id];\r\n                        labId = lab1Id;\r\n                    }\r\n                }\r\n            }\r\n        }\r\n        // if  !x : Lab(x) = MUST OUT then\r\n        (, uint256 argMustOutIdsLen) = _getMustOut(labId);\r\n        if (argMustOutIdsLen <= 0) {\r\n            // S  {x | Lab(x) = IN};\r\n            (uint256[] memory argInIds, uint256 argINIdsLen) = _getIn(labId);\r\n            // if !T  Epreferred : S  T then Epreferred  Epreferred  {S};\r\n            HitchensUnorderedKeySetLib.Set storage ext = prefExtensions[\r\n                prefExtensionId\r\n            ];\r\n            for (uint256 i = 0; i < argINIdsLen; i++) {\r\n                if (!ext.exists(bytes32(argInIds[i]))) {\r\n                    ext.insert(bytes32(argInIds[i]));\r\n                }\r\n            }\r\n        }\r\n    }\r\n\r\n    function _getBlank(uint256 labId)\r\n        private\r\n        view\r\n        returns (uint256[] memory argIdsTemp, uint256 argIdsLenTemp)\r\n    {\r\n        EMap.LabelMap storage lab = labs[labId];\r\n        argIdsTemp = new uint256[](lab.length());\r\n        argIdsLenTemp = 0;\r\n        for (uint256 i = 0; i < argIdsTemp.length; i++) {\r\n            (uint256 arg, EMap.Label argLabel) = lab.at(i);\r\n            if (argLabel == EMap.Label.BLANK) {\r\n                argIdsTemp[argIdsLenTemp++] = arg;\r\n            }\r\n        }\r\n    }\r\n\r\n    function _getMustOut(uint256 labId)\r\n        private\r\n        view\r\n        returns (uint256[] memory argIdsTemp, uint256 argIdsLenTemp)\r\n    {\r\n        EMap.LabelMap storage lab = labs[labId];\r\n        argIdsTemp = new uint256[](lab.length());\r\n        argIdsLenTemp = 0;\r\n        for (uint256 i = 0; i < argIdsTemp.length; i++) {\r\n            (uint256 arg, EMap.Label argLabel) = lab.at(i);\r\n            if (argLabel == EMap.Label.MUST_OUT) {\r\n                argIdsTemp[argIdsLenTemp++] = arg;\r\n            }\r\n        }\r\n    }\r\n\r\n    function _getIn(uint256 labId)\r\n        private\r\n        view\r\n        returns (uint256[] memory argIdsTemp, uint256 argIdsLenTemp)\r\n    {\r\n        EMap.LabelMap storage lab = labs[labId];\r\n        argIdsTemp = new uint256[](lab.length());\r\n        argIdsLenTemp = 0;\r\n        for (uint256 i = 0; i < argIdsTemp.length; i++) {\r\n            (uint256 arg, EMap.Label argLabel) = lab.at(i);\r\n            if (argLabel == EMap.Label.IN) {\r\n                argIdsTemp[argIdsLenTemp++] = arg;\r\n            }\r\n        }\r\n    }\r\n}\r\n",
  "sourcePath": "C:\\Users\\vincent.dewit\\Documents\\Code\\IHiBO_2.0\\contracts\\Argumentation.sol",
  "compiler": {
    "name": "solc",
    "version": "0.5.1+commit.c8a2cb62.Emscripten.clang"
  },
  "schemaVersion": "3.4.16",
  "updatedAt": "2024-04-30T13:30:22.503Z",
  "networkType": "ethereum",
  "devdoc": {
    "methods": {}
  },
  "userdoc": {
    "methods": {}
  }
}