{
  "contractName": "Balancing",
  "abi": [
    {
      "inputs": [],
      "payable": false,
      "stateMutability": "nonpayable",
      "type": "constructor"
    },
    {
      "constant": true,
      "inputs": [
        {
          "name": "r",
          "type": "uint256"
        }
      ],
      "name": "returnWeight",
      "outputs": [
        {
          "name": "weight",
          "type": "uint256"
        }
      ],
      "payable": false,
      "stateMutability": "view",
      "type": "function"
    },
    {
      "constant": false,
      "inputs": [
        {
          "name": "reason",
          "type": "uint256"
        },
        {
          "name": "newWeight",
          "type": "uint256"
        }
      ],
      "name": "changeWeight",
      "outputs": [],
      "payable": false,
      "stateMutability": "nonpayable",
      "type": "function"
    },
    {
      "constant": true,
      "inputs": [],
      "name": "getWeights",
      "outputs": [
        {
          "name": "weightsOfReasons",
          "type": "uint256[]"
        }
      ],
      "payable": false,
      "stateMutability": "view",
      "type": "function"
    },
    {
      "constant": true,
      "inputs": [],
      "name": "getReasons",
      "outputs": [
        {
          "name": "justifications",
          "type": "uint256[]"
        },
        {
          "name": "issues",
          "type": "uint256[]"
        },
        {
          "name": "polarities",
          "type": "uint256[]"
        }
      ],
      "payable": false,
      "stateMutability": "view",
      "type": "function"
    },
    {
      "constant": false,
      "inputs": [
        {
          "name": "justification",
          "type": "uint256"
        },
        {
          "name": "issue",
          "type": "uint256"
        },
        {
          "name": "polarity",
          "type": "uint256"
        }
      ],
      "name": "insertReason",
      "outputs": [
        {
          "name": "re",
          "type": "int256"
        }
      ],
      "payable": false,
      "stateMutability": "nonpayable",
      "type": "function"
    },
    {
      "constant": true,
      "inputs": [],
      "name": "procedureAdditive",
      "outputs": [
        {
          "name": "sum",
          "type": "int256"
        }
      ],
      "payable": false,
      "stateMutability": "view",
      "type": "function"
    }
  ],
  "bytecode": "0x608060405234801561001057600080fd5b506001600355600061002e8164010000000061063e61006c82021704565b600101905061004b60008264010000000061066c61007382021704565b60009081526002602081905260408220828155600181018390550155610221565b6001015490565b80151561010757604080517f08c379a000000000000000000000000000000000000000000000000000000000815260206004820152602860248201527f556e6f7264657265644b65795365742831303029202d204b65792063616e6e6f60448201527f7420626520307830000000000000000000000000000000000000000000000000606482015290519081900360840190fd5b61011a82826401000000006101d6810204565b156101ac57604080517f08c379a000000000000000000000000000000000000000000000000000000000815260206004820152603560248201527f556e6f7264657265644b65795365742831303129202d204b657920616c72656160448201527f64792065786973747320696e20746865207365742e0000000000000000000000606482015290519081900360840190fd5b60018281018054918201815560009081526020808220830184905592815292909152604090912055565b600182015460009015156101ec5750600061021b565b600082815260208490526040902054600184018054849290811061020c57fe5b90600052602060002001541490505b92915050565b61083c806102306000396000f3fe608060405260043610610071577c0100000000000000000000000000000000000000000000000000000000600035046322acb86781146100765780634bc07a87146100db578063503a687614610102578063b1e55198146101f5578063b9e98d111461022b578063eb0851d314610255575b600080fd5b34801561008257600080fd5b5061008b610287565b60408051602080825283518183015283519192839290830191858101910280838360005b838110156100c75781810151838201526020016100af565b505050509050019250505060405180910390f35b3480156100e757600080fd5b506100f061030f565b60408051918252519081900360200190f35b34801561010e57600080fd5b506101176103ed565b60405180806020018060200180602001848103845287818151815260200191508051906020019060200280838360005b8381101561015f578181015183820152602001610147565b50505050905001848103835286818151815260200191508051906020019060200280838360005b8381101561019e578181015183820152602001610186565b50505050905001848103825285818151815260200191508051906020019060200280838360005b838110156101dd5781810151838201526020016101c5565b50505050905001965050505050505060405180910390f35b34801561020157600080fd5b506100f06004803603606081101561021857600080fd5b5080359060208101359060400135610525565b34801561023757600080fd5b506100f06004803603602081101561024e57600080fd5b5035610611565b34801561026157600080fd5b506102856004803603604081101561027857600080fd5b5080359060200135610623565b005b60606000610295600061063e565b90506060816040519080825280602002602001820160405280156102c3578160200160208202803883390190505b50905060005b6102d3600061063e565b8110156103095760008181526007602052604090205482518390839081106102f757fe5b602090810290910101526001016102c9565b50505090565b60008061031b8161063e565b905060005b818110156103bf57600061033a818363ffffffff61064516565b60008181526002602052604090206003546001820154929350909114156103b4576002810154151561036d5750506103b7565b80600201546001141561039257600083815260076020526040902054909403936103b4565b8060020154600214156103b45760008381526007602052604090205494909401935b50505b600101610320565b5060008213156103d257600291506103e9565b60008212156103e457600191506103e9565b600091505b5090565b606080606060006103fe600061063e565b90508060405190808252806020026020018201604052801561042a578160200160208202803883390190505b50935080604051908082528060200260200182016040528015610457578160200160208202803883390190505b50925080604051908082528060200260200182016040528015610484578160200160208202803883390190505b50915060005b610494600061063e565b81101561051e5760006104ad818363ffffffff61064516565b60008181526002602052604090208054885192935090918890859081106104d057fe5b60209081029091010152600181015486518790859081106104ed57fe5b602090810290910101526002810154855186908590811061050a57fe5b60209081029091010152505060010161048a565b5050909192565b6000805b610533600061063e565b60010181101561059e576000818152600260205260409020548514801561056a575060008181526002602052604090206001015484145b801561058757506000818152600260208190526040909120015483145b1561059657600019915061059e565b600101610529565b5080151561060a5760006105b2600061063e565b60010190506105c860008263ffffffff61066c16565b6000818152600260208181526040808420898155600181018990559283018790553384526008909152909120610604818463ffffffff61066c16565b50909150505b9392505050565b60009081526007602052604090205490565b81151561062c57fe5b60009182526007602052604090912055565b6001015490565b6000826001018281548110151561065857fe5b906000526020600020015490505b92915050565b80151561070057604080517f08c379a000000000000000000000000000000000000000000000000000000000815260206004820152602860248201527f556e6f7264657265644b65795365742831303029202d204b65792063616e6e6f60448201527f7420626520307830000000000000000000000000000000000000000000000000606482015290519081900360840190fd5b61070a82826107c6565b1561079c57604080517f08c379a000000000000000000000000000000000000000000000000000000000815260206004820152603560248201527f556e6f7264657265644b65795365742831303129202d204b657920616c72656160448201527f64792065786973747320696e20746865207365742e0000000000000000000000606482015290519081900360840190fd5b60018281018054918201815560009081526020808220830184905592815292909152604090912055565b600182015460009015156107dc57506000610666565b60008281526020849052604090205460018401805484929081106107fc57fe5b90600052602060002001541490509291505056fea165627a7a72305820f71d8b823b63337500e2c8c9c3ff384b356792607d54c4122842056703df63c00029",
  "source": "// SPDX-License-Identifier: MIT\r\n\r\npragma solidity ^0.5.1;\r\n// pragma experimental ABIEncoderV2; // experimental feature | do not use in live deployments\r\n\r\n// import \"./DirectedGraph.sol\";\r\n// import \"./EnumerableMap.sol\";\r\nimport \"./HitchensUnorderedKeySet.sol\";\r\n\r\n// /*\r\ncontract Balancing {\r\n    using HitchensUnorderedKeySetLib for HitchensUnorderedKeySetLib.Set;\r\n\r\n    struct Reason {\r\n        uint256 justification;\r\n        uint256 issue;\r\n        uint256 polarity;\r\n    }\r\n\r\n    struct Case {\r\n        uint256 rcount;\r\n        uint256[] reasons;\r\n        uint256 issue;\r\n    }\r\n\r\n    HitchensUnorderedKeySetLib.Set reasonsIds;\r\n    mapping(uint256 => Reason) reasons;\r\n    uint256 issueTBD;\r\n    Case caseToBeDecided; \r\n    mapping(uint256 => uint256) weights;\r\n\r\n    mapping(address => HitchensUnorderedKeySetLib.Set) sources;\r\n\r\n\r\n    constructor() public {\r\n        // for now constructor sets issue to 0 // this is a bit silly as there will only be one issue in the contract but there can be reasons that are relevant for another issue.\r\n        \r\n        issueTBD = 1;\r\n        \r\n        // changeWeight(0,0,0,1);\r\n\r\n        uint256 reasonID = reasonsIds.count() + 1;\r\n        reasonsIds.insert(bytes32(reasonID));\r\n        Reason storage reason = reasons[reasonID];\r\n        reason.justification = 0;\r\n        reason.issue = 0;\r\n        reason.polarity = 0;\r\n    }\r\n\r\n// create functon to initialize contract. create access right for admin to set issue and read rights of the discourse.\r\n\r\n    function returnWeight(uint256 r) \r\n        public\r\n        view\r\n        returns (uint256 weight) \r\n    {\r\n        weight = weights[r];\r\n    }\r\n\r\n    function changeWeight(uint256 reason, uint256 newWeight) \r\n        public\r\n    {\r\n        assert(reason != 0);\r\n        weights[reason] = newWeight;\r\n    }\r\n\r\n    function getWeights()\r\n        public\r\n        view\r\n        returns (\r\n            uint256[] memory weightsOfReasons\r\n        )\r\n    {\r\n        uint256 rs = reasonsIds.count();\r\n\r\n        uint256[] memory _weights = new uint256[](rs);\r\n\r\n        for (uint256 i = 0; i < reasonsIds.count(); i++) {\r\n            _weights[i] = weights[i];\r\n        }\r\n        return weightsOfReasons;\r\n    }\r\n\r\n    function getReasons()\r\n        public\r\n        view\r\n        returns (\r\n            uint256[] memory justifications,\r\n            uint256[] memory issues,\r\n            uint256[] memory polarities\r\n        )\r\n    {\r\n        \r\n        uint256 reasonsCount = reasonsIds.count();\r\n\r\n        justifications = new uint256[](reasonsCount);\r\n        issues = new uint256[](reasonsCount);\r\n        polarities = new uint256[](reasonsCount);\r\n\r\n        for (uint256 i = 0; i < reasonsIds.count(); i++) {\r\n            uint256 reasonId = uint256(reasonsIds.keyAtIndex(i));\r\n            Reason storage reason = reasons[reasonId];\r\n            justifications[i] = reason.justification;\r\n            issues[i] = reason.issue;\r\n            polarities[i] = reason.polarity;\r\n        }\r\n    }\r\n\r\n    function insertReason(uint256 justification, uint256 issue, uint256 polarity) \r\n        public\r\n        returns (int256 re)\r\n    {\r\n\r\n        re = 0;\r\n        // check that reason is not known yet.\r\n        for (uint256 j = 0; j < reasonsIds.count() + 1; j++) {\r\n            if (reasons[j].justification == justification && \r\n            reasons[j].issue == issue && reasons[j].polarity == polarity) {\r\n                // conclude reason is already in reasons\r\n                // return false;\r\n                re = -1;\r\n                break;\r\n            }\r\n        }\r\n\r\n        if (re == 0) {\r\n            uint256 reasonID = reasonsIds.count() + 1;\r\n            reasonsIds.insert(bytes32(reasonID));\r\n            Reason storage reason = reasons[reasonID];\r\n            reason.justification = justification;\r\n            reason.issue = issue;\r\n            reason.polarity = polarity;\r\n    \r\n            HitchensUnorderedKeySetLib.Set storage source = sources[\r\n                msg.sender\r\n            ];\r\n            source.insert(bytes32(reasonID));\r\n            re = int256(reasonID);\r\n        }\r\n\r\n    }\r\n\r\n    function procedureAdditive()\r\n        public\r\n        view \r\n        returns (int256 sum)\r\n    {\r\n\r\n        sum = 0;\r\n        uint256 rs = reasonsIds.count();        \r\n        for (uint256 i = 0; i < rs; i++){\r\n                \r\n            uint256 reasonId = uint256(reasonsIds.keyAtIndex(i));\r\n            Reason storage reason = reasons[reasonId];\r\n\r\n            if (reason.issue == issueTBD) {\r\n                if (reason.polarity == 0) { // condition polarity is ?\r\n                    continue;\r\n                }\r\n                else if (reason.polarity == 1) { // condition polarity -\r\n                    sum -= int256(weights[i]);\r\n                }\r\n                else if (reason.polarity == 2) { // condition polarity +\r\n                    sum += int256(weights[i]);\r\n                }\r\n            }\r\n        }   \r\n        if (sum > 0) {\r\n            sum = 2;\r\n        }\r\n        else if (sum < 0) {\r\n            sum = 1;\r\n        }\r\n        else {\r\n            sum = 0;\r\n        }\r\n    }\r\n\r\n}\r\n",
  "sourcePath": "C:\\Users\\vincent.dewit\\Documents\\Code\\IHiBO_2.0\\contracts\\Balancing.sol",
  "compiler": {
    "name": "solc",
    "version": "0.5.1+commit.c8a2cb62.Emscripten.clang"
  },
  "schemaVersion": "3.4.16",
  "updatedAt": "2024-04-30T13:30:22.542Z",
  "networkType": "ethereum",
  "devdoc": {
    "methods": {}
  },
  "userdoc": {
    "methods": {}
  }
}