{
  "contractName": "BalancingBackUp",
  "abi": [
    {
      "inputs": [],
      "payable": false,
      "stateMutability": "nonpayable",
      "type": "constructor"
    },
    {
      "constant": true,
      "inputs": [
        {
          "name": "r",
          "type": "uint256"
        },
        {
          "name": "c",
          "type": "uint256"
        }
      ],
      "name": "returnWeight",
      "outputs": [
        {
          "name": "weight",
          "type": "uint256"
        }
      ],
      "payable": false,
      "stateMutability": "view",
      "type": "function"
    },
    {
      "constant": false,
      "inputs": [
        {
          "name": "weightSystemId",
          "type": "uint256"
        },
        {
          "name": "reason",
          "type": "uint256"
        },
        {
          "name": "context",
          "type": "uint256"
        },
        {
          "name": "newWeight",
          "type": "uint256"
        }
      ],
      "name": "changeWeight",
      "outputs": [],
      "payable": false,
      "stateMutability": "nonpayable",
      "type": "function"
    },
    {
      "constant": true,
      "inputs": [
        {
          "name": "wsId",
          "type": "uint256"
        }
      ],
      "name": "getWeights",
      "outputs": [
        {
          "name": "weights",
          "type": "uint256[5][3]"
        }
      ],
      "payable": false,
      "stateMutability": "view",
      "type": "function"
    },
    {
      "constant": true,
      "inputs": [],
      "name": "getReasons",
      "outputs": [
        {
          "name": "justifications",
          "type": "uint256[]"
        },
        {
          "name": "issues",
          "type": "uint256[]"
        },
        {
          "name": "polarities",
          "type": "uint256[]"
        }
      ],
      "payable": false,
      "stateMutability": "view",
      "type": "function"
    },
    {
      "constant": false,
      "inputs": [
        {
          "name": "justification",
          "type": "uint256"
        },
        {
          "name": "issue",
          "type": "uint256"
        },
        {
          "name": "polarity",
          "type": "uint256"
        }
      ],
      "name": "insertReason",
      "outputs": [
        {
          "name": "re",
          "type": "int256"
        }
      ],
      "payable": false,
      "stateMutability": "nonpayable",
      "type": "function"
    },
    {
      "constant": true,
      "inputs": [],
      "name": "getContexts",
      "outputs": [
        {
          "name": "reasonss",
          "type": "uint256[][]"
        },
        {
          "name": "issues",
          "type": "uint256[]"
        }
      ],
      "payable": false,
      "stateMutability": "view",
      "type": "function"
    },
    {
      "constant": false,
      "inputs": [
        {
          "name": "rs",
          "type": "uint256[]"
        },
        {
          "name": "issue",
          "type": "uint256"
        }
      ],
      "name": "insertContext",
      "outputs": [
        {
          "name": "contextID",
          "type": "uint256"
        }
      ],
      "payable": false,
      "stateMutability": "nonpayable",
      "type": "function"
    },
    {
      "constant": true,
      "inputs": [
        {
          "name": "wsID",
          "type": "uint256"
        },
        {
          "name": "con",
          "type": "uint256[]"
        }
      ],
      "name": "procedureAdditive",
      "outputs": [
        {
          "name": "sum",
          "type": "int256[]"
        }
      ],
      "payable": false,
      "stateMutability": "view",
      "type": "function"
    }
  ],
  "bytecode": "0x60806040523480156200001157600080fd5b5060006200002e600664010000000062000add6200014d82021704565b60010190506200004e60068264010000000062000b0b6200015482021704565b600081815260086020908152604080832060018452808352818420909252822060029055906200008d600364010000000062000add6200014d82021704565b6001019050620000ad60038264010000000062000b0b6200015482021704565b6000818152600560205260408120818155600181018290556002810182905590620000e68164010000000062000add6200014d82021704565b60010190506200010660008264010000000062000b0b6200015482021704565b6000818152600260209081526040808320815192830190915291815262000134906001808401919062000260565b5060018155600060029091015550620003a59350505050565b6001015490565b80151562000199576040517f08c379a0000000000000000000000000000000000000000000000000000000008152600401620001909062000381565b60405180910390fd5b620001ae828264010000000062000212810204565b15620001e8576040517f08c379a0000000000000000000000000000000000000000000000000000000008152600401620001909062000393565b60018281018054918201815560009081526020808220830184905592815292909152604090912055565b600182015460009015156200022a575060006200025a565b60008281526020849052604090205460018401805484929081106200024b57fe5b90600052602060002001541490505b92915050565b828054828255906000526020600020908101928215620002a3579160200282015b82811115620002a3578251829060ff1690559160200191906001019062000281565b50620002b1929150620002b5565b5090565b620002d291905b80821115620002b15760008155600101620002bc565b90565b602881527f556e6f7264657265644b65795365742831303029202d204b65792063616e6e6f60208201527f7420626520307830000000000000000000000000000000000000000000000000604082015260600190565b603581527f556e6f7264657265644b65795365742831303129202d204b657920616c72656160208201527f64792065786973747320696e20746865207365742e0000000000000000000000604082015260600190565b602080825281016200025a81620002d5565b602080825281016200025a816200032b565b6112ba80620003b56000396000f3fe608060405260043610610087577c0100000000000000000000000000000000000000000000000000000000600035046307603211811461008c5780630f95f48c146100b8578063503a6876146100e5578063a17d515114610109578063b1e5519814610136578063ba551d4514610156578063d5785b7614610178578063f3d5cc9a146101a5575b600080fd5b34801561009857600080fd5b506100a16101c5565b6040516100af92919061117c565b60405180910390f35b3480156100c457600080fd5b506100d86100d3366004610dba565b610336565b6040516100af91906111a1565b3480156100f157600080fd5b506100fa6105d3565b6040516100af939291906111b2565b34801561011557600080fd5b50610129610124366004610d43565b61070c565b6040516100af91906111f4565b34801561014257600080fd5b50610129610151366004610e21565b6108cc565b34801561016257600080fd5b50610176610171366004610e6e565b6109b8565b005b34801561018457600080fd5b50610198610193366004610d94565b6109fd565b6040516100af919061116d565b3480156101b157600080fd5b506101296101c0366004610e02565b610aa1565b60608060006101d46000610add565b90508060405190808252806020026020018201604052801561020a57816020015b60608152602001906001900390816101f55790505b50925080604051908082528060200260200182016040528015610237578160200160208202803883390190505b50915060005b818110156103305760408051600a8082526101608201909252906020820161014080388339505085518691508390811061027357fe5b60209081029091010152600061028f818363ffffffff610ae416565b600081815260026020908152604091829020600181018054845181850281018501909552808552949550909390918301828280156102ec57602002820191906000526020600020905b8154815260200190600101908083116102d8575b505050505086848151811015156102ff57fe5b602090810290910101526002810154855186908590811061031c57fe5b60209081029091010152505060010161023d565b50509091565b60608151604051908082528060200260200182016040528015610363578160200160208202803883390190505b509050600061037960068563ffffffff610ae416565b60008181526008602052604081209192505b84518110156105ca5760006103bf86838151811015156103a757fe5b6020908102909101015160009063ffffffff610ae416565b60008181526002602052604081208751929350918790859081106103df57fe5b6020908102909101015260005b8154811015610535576000826001018281548110151561040857fe5b6000918252602082200154915061042660038363ffffffff610ae416565b60008181526005602052604090206002860154600182015492935090911415610529576002810154151561045c5750505061052d565b8060020154600114156104c55760008381526020899052604081208c519091908d908a90811061048857fe5b906020019060200201518152602001908152602001600020548a888151811015156104af57fe5b6020908102909101018051919091039052610529565b8060020154600214156105295760008381526020899052604081208c519091908d908a9081106104f157fe5b906020019060200201518152602001908152602001600020548a8881518110151561051857fe5b602090810290910101805190910190525b5050505b6001016103ec565b506000868481518110151561054657fe5b906020019060200201511315610575576002868481518110151561056657fe5b602090810290910101526105c0565b6000868481518110151561058557fe5b9060200190602002015112156105a5576001868481518110151561056657fe5b600086848151811015156105b557fe5b602090810290910101525b505060010161038b565b50505092915050565b606080606060006105e46003610add565b905080604051908082528060200260200182016040528015610610578160200160208202803883390190505b5093508060405190808252806020026020018201604052801561063d578160200160208202803883390190505b5092508060405190808252806020026020018201604052801561066a578160200160208202803883390190505b50915060005b61067a6003610add565b81101561070557600061069460038363ffffffff610ae416565b60008181526005602052604090208054885192935090918890859081106106b757fe5b60209081029091010152600181015486518790859081106106d457fe5b60209081029091010152600281015485518690859081106106f157fe5b602090810290910101525050600101610670565b5050909192565b6000806107196003610add565b9050606081604051908082528060200260200182016040528015610747578160200160208202803883390190505b50905060005b85518110156107ae5782868281518110151561076557fe5b9060200190602002015110156107a657858181518110151561078357fe5b90602001906020020151828281518110151561079b57fe5b602090810290910101525b60010161074d565b50606085516040519080825280602002602001820160405280156107dc578160200160208202803883390190505b5090506000805b875181101561084b578488828151811015156107fb57fe5b90602001906020020151101561084357878181518110151561081957fe5b90602001906020020151838381518110151561083157fe5b60209081029091010152600191909101905b6001016107e3565b506108566000610add565b600101945061086c60008663ffffffff610b0b16565b60008581526002602090815260409091208851815583519091610896916001840191860190610c02565b50600281018790553360009081526009602052604090206108c081600a890263ffffffff610b0b16565b50505050505092915050565b6000805b6108da6003610add565b6001018110156109445760008181526005602052604090205485148015610911575060008181526005602052604090206001015484145b801561092d575060008181526005602052604090206002015483145b1561093c576000199150610944565b6001016108d0565b508015156109b15760006109586003610add565b600101905061096e60038263ffffffff610b0b16565b6000818152600560209081526040808320888155600181018890556002810187905533845260099092529091206109ab818463ffffffff610b0b16565b50909150505b9392505050565b8215156109c157fe5b60006109d460068663ffffffff610ae416565b600090815260086020908152604080832096835295815285822094825293909352509190205550565b610a05610c4d565b6000610a1860068463ffffffff610ae416565b60008181526008602052604081209192505b610a346000610add565b811015610a995760005b610a486003610add565b811015610a9057600081815260208481526040808320858452909152902054858360038110610a7357fe5b60200201518260058110610a8357fe5b6020020152600101610a3e565b50600101610a2a565b505050919050565b60009182527fad67d757c34507f157cacfa2e3153e9f260a2244f30428821be7be64587ac55f6020908152604080842092845291905290205490565b6001015490565b60008260010182815481101515610af757fe5b906000526020600020015490505b92915050565b801515610b4d576040517f08c379a0000000000000000000000000000000000000000000000000000000008152600401610b4490611202565b60405180910390fd5b610b578282610bb8565b15610b8e576040517f08c379a0000000000000000000000000000000000000000000000000000000008152600401610b4490611212565b60018281018054918201815560009081526020808220830184905592815292909152604090912055565b60018201546000901515610bce57506000610b05565b6000828152602084905260409020546001840180548492908110610bee57fe5b906000526020600020015414905092915050565b828054828255906000526020600020908101928215610c3d579160200282015b82811115610c3d578251825591602001919060010190610c22565b50610c49929150610c7c565b5090565b6101e0604051908101604052806003905b610c66610c99565b815260200190600190039081610c5e5790505090565b610c9691905b80821115610c495760008155600101610c82565b90565b60a0604051908101604052806005906020820280388339509192915050565b6000601f82018313610cc957600080fd5b8135610cdc610cd782611249565b611222565b91508181835260208401935060208101905083856020840282011115610d0157600080fd5b60005b83811015610d2d5781610d178882610d37565b8452506020928301929190910190600101610d04565b5050505092915050565b60006109b18235610c96565b60008060408385031215610d5657600080fd5b823567ffffffffffffffff811115610d6d57600080fd5b610d7985828601610cb8565b9250506020610d8a85828601610d37565b9150509250929050565b600060208284031215610da657600080fd5b6000610db28484610d37565b949350505050565b60008060408385031215610dcd57600080fd5b6000610dd98585610d37565b925050602083013567ffffffffffffffff811115610df657600080fd5b610d8a85828601610cb8565b60008060408385031215610e1557600080fd5b6000610d798585610d37565b600080600060608486031215610e3657600080fd5b6000610e428686610d37565b9350506020610e5386828701610d37565b9250506040610e6486828701610d37565b9150509250925092565b60008060008060808587031215610e8457600080fd5b6000610e908787610d37565b9450506020610ea187828801610d37565b9350506040610eb287828801610d37565b9250506060610ec387828801610d37565b91505092959194509250565b610ed881611270565b610ee182610c96565b60005b82811015610f1157610ef7858351610fd6565b610f008261126a565b60a095909501949150600101610ee4565b5050505050565b6000610f2382611276565b80845260208401935083602082028501610f3c8561126a565b60005b84811015610f73578383038852610f57838351611065565b9250610f628261126a565b602098909801979150600101610f3f565b50909695505050505050565b6000610f8a82611276565b808452602084019350610f9c8361126a565b60005b82811015610fcc57610fb28683516110b2565b610fbb8261126a565b602096909601959150600101610f9f565b5093949350505050565b610fdf8161127a565b610fe882610c96565b60005b82811015610f1157610ffe8583516110b2565b6110078261126a565b602095909501949150600101610feb565b600061102382611276565b8084526020840193506110358361126a565b60005b82811015610fcc5761104b8683516110b2565b6110548261126a565b602096909601959150600101611038565b600061107082611276565b8084526020840193506110828361126a565b60005b82811015610fcc576110988683516110b2565b6110a18261126a565b602096909601959150600101611085565b6110bb81610c96565b82525050565b602881527f556e6f7264657265644b65795365742831303029202d204b65792063616e6e6f60208201527f7420626520307830000000000000000000000000000000000000000000000000604082015260600190565b603581527f556e6f7264657265644b65795365742831303129202d204b657920616c72656160208201527f64792065786973747320696e20746865207365742e0000000000000000000000604082015260600190565b6101e08101610b058284610ecf565b6040808252810161118d8185610f18565b90508181036020830152610db28184611018565b602080825281016109b18184610f7f565b606080825281016111c38186611018565b905081810360208301526111d78185611018565b905081810360408301526111eb8184611018565b95945050505050565b60208101610b0582846110b2565b60208082528101610b05816110c1565b60208082528101610b0581611117565b60405181810167ffffffffffffffff8111828210171561124157600080fd5b604052919050565b600067ffffffffffffffff82111561126057600080fd5b5060209081020190565b60200190565b50600390565b5190565b5060059056fea265627a7a7230582011565488fecbc7f5728d9b237d10779bee671c46d419a9047bcb042b96df51026c6578706572696d656e74616cf50037",
  "source": "// SPDX-License-Identifier: MIT\r\n\r\n// TODO consider making more contracts for example for the data structures with getters and setters\r\n// like in the example on: https://github.com/rob-Hitchens/UnorderedKeySet\r\n\r\npragma solidity ^0.5.1;\r\npragma experimental ABIEncoderV2; // experimental feature | do not use in live deployments\r\n\r\n// import \"./DirectedGraph.sol\";\r\n// import \"./EnumerableMap.sol\";\r\nimport \"./HitchensUnorderedKeySet.sol\";\r\n\r\n// /*\r\ncontract BalancingBackUp {\r\n    using HitchensUnorderedKeySetLib for HitchensUnorderedKeySetLib.Set;\r\n\r\n    struct Reason {\r\n        uint256 justification;\r\n        uint256 issue;\r\n        uint256 polarity;\r\n    }\r\n\r\n    struct Context {\r\n        uint256 rcount;\r\n        uint256[] reasons;\r\n        uint256 issue;\r\n    }\r\n\r\n    struct WeightSystem {\r\n        mapping(uint256 => mapping(uint256 => uint256)) weights;\r\n    }\r\n\r\n    HitchensUnorderedKeySetLib.Set contextsIds;\r\n    mapping(uint256 => Context) contexts;\r\n    HitchensUnorderedKeySetLib.Set reasonsIds;\r\n    mapping(uint256 => Reason) reasons;\r\n    HitchensUnorderedKeySetLib.Set weightSystemIds;\r\n    mapping(uint256 => WeightSystem) weightSystems;\r\n\r\n    mapping(address => HitchensUnorderedKeySetLib.Set) sources;\r\n\r\n\r\n\r\n    constructor() public {\r\n        uint256 wsID = weightSystemIds.count() + 1;\r\n        weightSystemIds.insert(bytes32(wsID));\r\n        WeightSystem storage weightSystem = weightSystems[wsID];\r\n        weightSystem.weights[1][1] = 2;\r\n\r\n        // initReasons();\r\n        // changeWeight(0,0,0,1);\r\n\r\n        uint256 reasonID = reasonsIds.count() + 1;\r\n        reasonsIds.insert(bytes32(reasonID));\r\n        Reason storage reason = reasons[reasonID];\r\n        reason.justification = 0;\r\n        reason.issue = 0;\r\n        reason.polarity = 0;\r\n\r\n        uint256 contextID = contextsIds.count() + 1;\r\n        contextsIds.insert(bytes32(contextID));\r\n        Context storage context = contexts[contextID];\r\n        context.reasons = [0];\r\n        context.rcount = 1;\r\n        context.issue = 0;\r\n\r\n    }\r\n\r\n    function returnWeight(uint256 r, uint256 c) \r\n        public\r\n        view\r\n        returns (uint256 weight) \r\n    {\r\n        WeightSystem storage weightSystem = weightSystems[1];\r\n        weight = weightSystem.weights[r][c];\r\n    }\r\n\r\n    function changeWeight(uint256 weightSystemId, uint256 reason, uint256 context, uint256 newWeight) \r\n        public\r\n    {\r\n        assert(reason != 0);\r\n        uint256 key = uint256(weightSystemIds.keyAtIndex(weightSystemId));\r\n        WeightSystem storage weightSystem = weightSystems[key];\r\n        weightSystem.weights[reason][context] = newWeight;\r\n    }\r\n\r\n    // function initializeNewWeights() \r\n    //     public\r\n    // {\r\n    //     for (uint256 i = 0; i < weightSystemIds.count(); i++) {\r\n    //         uint256 wsId = uint256(weightSystemIds.keyAtIndex(i));\r\n    //         WeightSystem storage weightSystem = weightSystems[wsId];\r\n\r\n\r\n    //         for (uint256 r = 0; r < reasonsIds.count(); r++) {\r\n    //             for (uint256 c = 0; c < contextsIds.count(); c++) {\r\n    //                 if (r > weightSystem.numberOfReasons || c > weightSystem.numberOfContexts) {\r\n    //                     weightSystem.weights[r][c] = 0;\r\n    //                 }\r\n    //             }\r\n    //         }\r\n    //         weightSystem.numberOfContexts = contextsIds.count();\r\n    //         weightSystem.numberOfReasons = reasonsIds.count();\r\n    //     }\r\n    // }\r\n\r\n    function getWeights(uint256 wsId)\r\n        public\r\n        view\r\n        returns (\r\n            uint256[5][3] memory weights\r\n        )\r\n    {\r\n        // TODO not finished yet this is only considering context 0.\r\n        uint256 key = uint256(weightSystemIds.keyAtIndex(wsId));\r\n        WeightSystem storage weightSystem = weightSystems[key];\r\n\r\n        // uint256 rs = reasonsIds.count();\r\n        // uint256 cs = contextsIds.count();\r\n        // uint256[5][3] memory weights;\r\n\r\n        // uint256[] memory _weights = new uint256[](reasonsIds.count());\r\n        // weights = new uint256[][](contextsIds.count());\r\n\r\n        for (uint256 j = 0; j < contextsIds.count(); j++) {\r\n            for (uint256 i = 0; i < reasonsIds.count(); i++) {\r\n                // _weights[i] = weightSystem.weights[i][j];\r\n                weights[j][i] = weightSystem.weights[i][j];\r\n            }\r\n            // weights[j] = _weights;\r\n        }\r\n        return weights;\r\n    }\r\n\r\n    function getReasons()\r\n        public\r\n        view\r\n        returns (\r\n            uint256[] memory justifications,\r\n            uint256[] memory issues,\r\n            uint256[] memory polarities\r\n        )\r\n    {\r\n        \r\n        uint256 reasonsCount = reasonsIds.count();\r\n\r\n        justifications = new uint256[](reasonsCount);\r\n        issues = new uint256[](reasonsCount);\r\n        polarities = new uint256[](reasonsCount);\r\n\r\n        for (uint256 i = 0; i < reasonsIds.count(); i++) {\r\n            uint256 reasonId = uint256(reasonsIds.keyAtIndex(i));\r\n            Reason storage reason = reasons[reasonId];\r\n            justifications[i] = reason.justification;\r\n            issues[i] = reason.issue;\r\n            polarities[i] = reason.polarity;\r\n        }\r\n    }\r\n\r\n    function insertReason(uint256 justification, uint256 issue, uint256 polarity) \r\n        public\r\n        returns (int256 re)\r\n    {\r\n        re = 0;\r\n        // check that reason is not known yet.\r\n        for (uint256 j = 0; j < reasonsIds.count() + 1; j++) {\r\n            if (reasons[j].justification == justification && \r\n            reasons[j].issue == issue && reasons[j].polarity == polarity) {\r\n                // conclude reason is already in reasons\r\n                // return false;\r\n                re = -1;\r\n                break;\r\n            }\r\n        }\r\n\r\n        if (re == 0) {\r\n            uint256 reasonID = reasonsIds.count() + 1;\r\n            reasonsIds.insert(bytes32(reasonID));\r\n            Reason storage reason = reasons[reasonID];\r\n            reason.justification = justification;\r\n            reason.issue = issue;\r\n            reason.polarity = polarity;\r\n    \r\n            HitchensUnorderedKeySetLib.Set storage source = sources[\r\n                msg.sender\r\n            ];\r\n            source.insert(bytes32(reasonID));\r\n            re = int256(reasonID);\r\n        }\r\n\r\n    }\r\n\r\n    function getContexts()\r\n        public\r\n        view\r\n        returns (\r\n            uint256[][] memory reasonss,\r\n            uint256[] memory issues\r\n        )\r\n    {\r\n        uint256 contextsCount = contextsIds.count();\r\n\r\n        reasonss = new uint256[][](contextsCount);\r\n        issues = new uint256[](contextsCount);\r\n\r\n        for (uint256 i = 0; i < contextsCount; i++) {\r\n            reasonss[i] = new uint256[](10); // 10 was a temporary solution\r\n            uint256 contextId = uint256(contextsIds.keyAtIndex(i));\r\n            Context storage context = contexts[contextId];\r\n            reasonss[i] = context.reasons;\r\n            issues[i] = context.issue;\r\n        }\r\n    }\r\n    \r\n\r\n    function insertContext(uint256[] memory rs, uint256 issue) \r\n        public\r\n        returns (uint256 contextID)\r\n    {\r\n        // possible TODO: instead of removing unknown reasons add them to known reasons\r\n        // but with ?'s as x, y and v.\r\n        // part of this function is redone to put ?'s but this makes part of the function redundant\r\n\r\n        uint256 reasonsCount = reasonsIds.count();\r\n        uint256[] memory rss = new uint256[](reasonsCount);\r\n        // uint256 amount = 0;\r\n        for (uint256 i = 0; i < rs.length; i++) {\r\n            if (rs[i] < reasonsCount) {\r\n                rss[i] = rs[i];\r\n            }\r\n        }\r\n\r\n        uint256[] memory rsss = new uint256[](rs.length);\r\n        uint256 j = 0;\r\n        for (uint256 i = 0; i < rs.length; i++) {\r\n            if (rs[i] < reasonsCount) {\r\n                rsss[j] = rs[i];\r\n                j += 1;\r\n            }\r\n        }\r\n        \r\n        // does not really do what it should? // why did I write this?\r\n        contextID = contextsIds.count() + 1;\r\n        contextsIds.insert(bytes32(contextID));\r\n        Context storage context = contexts[contextID];\r\n        context.rcount = rs.length;\r\n        context.reasons = rsss;\r\n        context.issue = issue; \r\n\r\n        HitchensUnorderedKeySetLib.Set storage source = sources[\r\n            msg.sender\r\n        ];\r\n\r\n        // TODO *10 short term solution writing from insert reason and insert context\r\n        source.insert(bytes32(contextID*10));\r\n\r\n        // TODO add weight instantiation.\r\n\r\n    }\r\n\r\n\r\n    function procedureAdditive(uint256 wsID, uint256[] memory con)\r\n        public \r\n        view\r\n        returns (int256[] memory sum)\r\n    {\r\n        // int256[] memory sum;\r\n        sum = new int256[](con.length);\r\n\r\n        uint256 wkey = uint256(weightSystemIds.keyAtIndex(wsID));\r\n        WeightSystem storage weightSystem = weightSystems[wkey];\r\n\r\n        for (uint256 j = 0; j < con.length; j++) {\r\n            uint256 ckey = uint256(contextsIds.keyAtIndex(con[j]));\r\n            Context storage context = contexts[ckey];\r\n\r\n            sum[j] = 0;\r\n            \r\n            for (uint256 i = 0; i < context.rcount; i++){\r\n                \r\n                uint256 r = context.reasons[i];\r\n                uint256 reasonId = uint256(reasonsIds.keyAtIndex(r));\r\n                Reason storage reason = reasons[reasonId];\r\n\r\n                if (reason.issue == context.issue) {\r\n                    if (reason.polarity == 0) { // condition polarity is ?\r\n                        continue;\r\n                    }\r\n                    else if (reason.polarity == 1) { // condition polarity -\r\n                        sum[j] -= int256(weightSystem.weights[r][con[j]]);\r\n                    }\r\n                    else if (reason.polarity == 2) { // condition polarity +\r\n                        sum[j] += int256(weightSystem.weights[r][con[j]]);\r\n                    }\r\n                }\r\n            }\r\n             if (sum[j] > 0) {\r\n                sum[j] = 2;\r\n            }\r\n            else if (sum[j] < 0) {\r\n                sum[j] = 1;\r\n            }\r\n            else {\r\n                sum[j] = 0;\r\n            }\r\n        }\r\n    }\r\n\r\n    // function getGraph(uint256 graphId)\r\n    //     public\r\n    //     view\r\n    //     returns (\r\n    //         uint256[] memory nodes,\r\n    //         uint256[] memory edgesSource,\r\n    //         uint256[] memory edgesTarget\r\n    //     )\r\n    // {\r\n    //     DirectedGraph.Graph storage graph = graphs[graphId];\r\n    //     uint256 nodesCount = graph.nodesIds.count();\r\n    //     uint256 edgesCount = graph.edgesIds.count();\r\n\r\n    //     nodes = new uint256[](nodesCount);\r\n    //     edgesSource = new uint256[](edgesCount);\r\n    //     edgesTarget = new uint256[](edgesCount);\r\n\r\n    //     for (uint256 i = 0; i < graph.nodesIds.count(); i++) {\r\n    //         nodes[i] = uint256(graph.nodesIds.keyAtIndex(i));\r\n    //     }\r\n\r\n    //     for (uint256 i = 0; i < graph.edgesIds.count(); i++) {\r\n    //         uint256 edgeId = uint256(graph.edgesIds.keyAtIndex(i));\r\n    //         DirectedGraph.Edge storage edge = graph.edges[edgeId];\r\n    //         edgesSource[i] = edge.source;\r\n    //         edgesTarget[i] = edge.target;\r\n    //     }\r\n    // }\r\n\r\n}\r\n// */\r\n",
  "sourcePath": "C:\\Users\\vincent.dewit\\Documents\\Code\\IHiBO_2.0\\contracts\\BalancingBackup.sol",
  "compiler": {
    "name": "solc",
    "version": "0.5.1+commit.c8a2cb62.Emscripten.clang"
  },
  "schemaVersion": "3.4.16",
  "updatedAt": "2024-04-30T13:30:04.277Z",
  "devdoc": {
    "methods": {}
  },
  "userdoc": {
    "methods": {}
  }
}