{
  "contractName": "Negotiation",
  "abi": [
    {
      "inputs": [],
      "payable": false,
      "stateMutability": "nonpayable",
      "type": "constructor"
    },
    {
      "constant": false,
      "inputs": [
        {
          "name": "b",
          "type": "address"
        }
      ],
      "name": "newNegotiation",
      "outputs": [
        {
          "name": "negotiationId",
          "type": "uint256"
        }
      ],
      "payable": false,
      "stateMutability": "nonpayable",
      "type": "function"
    },
    {
      "constant": false,
      "inputs": [
        {
          "name": "negId",
          "type": "uint256"
        },
        {
          "name": "offer",
          "type": "uint256[]"
        }
      ],
      "name": "newOffer",
      "outputs": [],
      "payable": false,
      "stateMutability": "nonpayable",
      "type": "function"
    },
    {
      "constant": false,
      "inputs": [
        {
          "name": "negId",
          "type": "uint256"
        }
      ],
      "name": "accept",
      "outputs": [],
      "payable": false,
      "stateMutability": "nonpayable",
      "type": "function"
    }
  ],
  "bytecode": "0x608060405234801561001057600080fd5b506104bc806100206000396000f3fe608060405260043610610050577c0100000000000000000000000000000000000000000000000000000000600035046319b05f4981146100555780635b1cfcaf14610081578063ddf3486f14610138575b600080fd5b34801561006157600080fd5b5061007f6004803603602081101561007857600080fd5b503561017d565b005b34801561008d57600080fd5b5061007f600480360360408110156100a457600080fd5b813591908101906040810160208201356401000000008111156100c657600080fd5b8201836020820111156100d857600080fd5b803590602001918460208302840111640100000000831117156100fa57600080fd5b919080806020026020016040519081016040528093929190818152602001838360200280828437600092019190915250929550610273945050505050565b34801561014457600080fd5b5061016b6004803603602081101561015b57600080fd5b5035600160a060020a03166103d5565b60408051918252519081900360200190f35b60008181526001602052604090208054600160a060020a03163314806101af57506001810154600160a060020a031633145b1515610205576040805160e560020a62461bcd02815260206004820152601f60248201527f4e65676f74696174696f6e3a2053656e646572206e6f7420616c6c6f77656400604482015290519081900360640190fd5b600481015460ff1615610262576040805160e560020a62461bcd02815260206004820152601d60248201527f4e65676f74696174696f6e3a20416c7265616479206163636570746564000000604482015290519081900360640190fd5b600401805460ff1916600117905550565b60008281526001602052604090208054600160a060020a03163314806102a557506001810154600160a060020a031633145b15156102fb576040805160e560020a62461bcd02815260206004820152601f60248201527f4e65676f74696174696f6e3a2053656e646572206e6f7420616c6c6f77656400604482015290519081900360640190fd5b600481015460ff1615610358576040805160e560020a62461bcd02815260206004820152601d60248201527f4e65676f74696174696f6e3a20416c7265616479206163636570746564000000604482015290519081900360640190fd5b8054600160a060020a031633141561039f576002810180546001810180835560009283526020928390208551919361039893919091019190860190610428565b50506103d0565b600381018054600181018083556000928352602092839020855191936103cd93919091019190860190610428565b50505b505050565b60008054600180820183558183526020819052604090922080543373ffffffffffffffffffffffffffffffffffffffff1991821617825592018054909216600160a060020a039390931692909217905590565b828054828255906000526020600020908101928215610463579160200282015b82811115610463578251825591602001919060010190610448565b5061046f929150610473565b5090565b61048d91905b8082111561046f5760008155600101610479565b9056fea165627a7a72305820714f47f8eea579240490125d7b1ae9086abed65dcbd652788147f8b946ad6a970029",
  "source": "// SPDX-License-Identifier: MIT\r\n\r\npragma solidity ^0.5.1;\r\n\r\ncontract Negotiation {\r\n    uint256 negotiationNum;\r\n    mapping(uint256 => NegotiationStruct) negotiations;\r\n\r\n    struct NegotiationStruct {\r\n        address a;\r\n        address b;\r\n        uint256[][] aOffers;\r\n        uint256[][] bOffers;\r\n        bool accepted;\r\n    }\r\n\r\n    constructor() public {}\r\n\r\n    function newNegotiation(address b) public returns (uint256 negotiationId) {\r\n        negotiationId = negotiationNum++;\r\n        NegotiationStruct storage negotiation = negotiations[negotiationId];\r\n        negotiation.a = msg.sender;\r\n        negotiation.b = b;\r\n    }\r\n\r\n    function newOffer(uint256 negId, uint256[] memory offer) public {\r\n        NegotiationStruct storage negotiation = negotiations[negId];\r\n        require(\r\n            msg.sender == negotiation.a || msg.sender == negotiation.b,\r\n            \"Negotiation: Sender not allowed\"\r\n        );\r\n        require(!negotiation.accepted, \"Negotiation: Already accepted\");\r\n        if (msg.sender == negotiation.a) {\r\n            negotiation.aOffers.push(offer);\r\n        } else {\r\n            negotiation.bOffers.push(offer);\r\n        }\r\n    }\r\n\r\n    function accept(uint256 negId) public {\r\n        NegotiationStruct storage negotiation = negotiations[negId];\r\n        require(\r\n            msg.sender == negotiation.a || msg.sender == negotiation.b,\r\n            \"Negotiation: Sender not allowed\"\r\n        );\r\n        require(!negotiation.accepted, \"Negotiation: Already accepted\");\r\n        negotiation.accepted = true;\r\n    }\r\n}\r\n",
  "sourcePath": "C:\\Users\\vincent.dewit\\Documents\\Code\\IHiBO_2.0\\contracts\\Negotiation.sol",
  "compiler": {
    "name": "solc",
    "version": "0.5.1+commit.c8a2cb62.Emscripten.clang"
  },
  "schemaVersion": "3.4.16",
  "updatedAt": "2024-04-30T13:30:22.514Z",
  "networkType": "ethereum",
  "devdoc": {
    "methods": {}
  },
  "userdoc": {
    "methods": {}
  }
}