{
  "contractName": "Tinkering",
  "abi": [
    {
      "inputs": [],
      "payable": false,
      "stateMutability": "nonpayable",
      "type": "constructor"
    },
    {
      "anonymous": false,
      "inputs": [
        {
          "indexed": false,
          "name": "args",
          "type": "uint256[]"
        }
      ],
      "name": "PreferredExtensions",
      "type": "event"
    },
    {
      "constant": true,
      "inputs": [
        {
          "name": "argID",
          "type": "uint256"
        }
      ],
      "name": "getNodeValue",
      "outputs": [
        {
          "name": "value",
          "type": "uint256"
        }
      ],
      "payable": false,
      "stateMutability": "view",
      "type": "function"
    },
    {
      "constant": false,
      "inputs": [
        {
          "name": "metadata",
          "type": "string"
        }
      ],
      "name": "insertArgument",
      "outputs": [
        {
          "name": "argId",
          "type": "uint256"
        }
      ],
      "payable": false,
      "stateMutability": "nonpayable",
      "type": "function"
    },
    {
      "constant": false,
      "inputs": [
        {
          "name": "argId",
          "type": "uint256"
        }
      ],
      "name": "supportArgument",
      "outputs": [],
      "payable": false,
      "stateMutability": "nonpayable",
      "type": "function"
    },
    {
      "constant": false,
      "inputs": [
        {
          "name": "sourceId",
          "type": "uint256"
        },
        {
          "name": "targetId",
          "type": "uint256"
        },
        {
          "name": "metadata",
          "type": "string"
        }
      ],
      "name": "insertAttack",
      "outputs": [
        {
          "name": "edgeId",
          "type": "uint256"
        }
      ],
      "payable": false,
      "stateMutability": "nonpayable",
      "type": "function"
    },
    {
      "constant": false,
      "inputs": [],
      "name": "pafReductionToAfPr1",
      "outputs": [
        {
          "name": "graphId",
          "type": "uint256"
        }
      ],
      "payable": false,
      "stateMutability": "nonpayable",
      "type": "function"
    },
    {
      "constant": false,
      "inputs": [],
      "name": "pafReductionToAfPr2",
      "outputs": [
        {
          "name": "graphId",
          "type": "uint256"
        }
      ],
      "payable": false,
      "stateMutability": "nonpayable",
      "type": "function"
    },
    {
      "constant": false,
      "inputs": [],
      "name": "pafReductionToAfPr3",
      "outputs": [
        {
          "name": "graphId",
          "type": "uint256"
        }
      ],
      "payable": false,
      "stateMutability": "nonpayable",
      "type": "function"
    },
    {
      "constant": false,
      "inputs": [],
      "name": "pafReductionToAfPr4",
      "outputs": [
        {
          "name": "graphId",
          "type": "uint256"
        }
      ],
      "payable": false,
      "stateMutability": "nonpayable",
      "type": "function"
    },
    {
      "constant": true,
      "inputs": [
        {
          "name": "graphId",
          "type": "uint256"
        }
      ],
      "name": "getGraph",
      "outputs": [
        {
          "name": "nodes",
          "type": "uint256[]"
        },
        {
          "name": "edgesSource",
          "type": "uint256[]"
        },
        {
          "name": "edgesTarget",
          "type": "uint256[]"
        }
      ],
      "payable": false,
      "stateMutability": "view",
      "type": "function"
    },
    {
      "constant": true,
      "inputs": [
        {
          "name": "graphId",
          "type": "uint256"
        }
      ],
      "name": "getGraph2",
      "outputs": [
        {
          "name": "nodes",
          "type": "uint256[]"
        },
        {
          "name": "votes",
          "type": "uint256[]"
        },
        {
          "name": "edgesSource",
          "type": "uint256[]"
        },
        {
          "name": "edgesTarget",
          "type": "uint256[]"
        }
      ],
      "payable": false,
      "stateMutability": "view",
      "type": "function"
    },
    {
      "constant": false,
      "inputs": [
        {
          "name": "graphId",
          "type": "uint256"
        }
      ],
      "name": "enumeratingPreferredExtensions",
      "outputs": [
        {
          "name": "args",
          "type": "uint256[]"
        }
      ],
      "payable": false,
      "stateMutability": "nonpayable",
      "type": "function"
    }
  ],
  "bytecode": "0x60806040523480156200001157600080fd5b506200002e600060016401000000006200113a6200003482021704565b620001e9565b801515620000c957604080517f08c379a000000000000000000000000000000000000000000000000000000000815260206004820152602860248201527f556e6f7264657265644b65795365742831303029202d204b65792063616e6e6f60448201527f7420626520307830000000000000000000000000000000000000000000000000606482015290519081900360840190fd5b620000de82826401000000006200019b810204565b156200017157604080517f08c379a000000000000000000000000000000000000000000000000000000000815260206004820152603560248201527f556e6f7264657265644b65795365742831303129202d204b657920616c72656160448201527f64792065786973747320696e20746865207365742e0000000000000000000000606482015290519081900360840190fd5b60018281018054918201815560009081526020808220830184905592815292909152604090912055565b60018201546000901515620001b357506000620001e3565b6000828152602084905260409020546001840180548492908110620001d457fe5b90600052602060002001541490505b92915050565b61235a80620001f96000396000f3fe6080604052600436106100a8577c010000000000000000000000000000000000000000000000000000000060003504632defc54e81146100ad57806334142746146100d45780636f14487a146101dc5780637398437d146102565780638deb045f1461028057806399e3afe814610295578063a02e511014610354578063c445f21814610380578063dc6d391e146104cd578063df3e1406146104e2578063fcc91060146104f7575b600080fd5b3480156100b957600080fd5b506100c26105aa565b60408051918252519081900360200190f35b3480156100e057600080fd5b506100fe600480360360208110156100f757600080fd5b50356106c7565b60405180806020018060200180602001848103845287818151815260200191508051906020019060200280838360005b8381101561014657818101518382015260200161012e565b50505050905001848103835286818151815260200191508051906020019060200280838360005b8381101561018557818101518382015260200161016d565b50505050905001848103825285818151815260200191508051906020019060200280838360005b838110156101c45781810151838201526020016101ac565b50505050905001965050505050505060405180910390f35b3480156101e857600080fd5b50610206600480360360208110156101ff57600080fd5b503561084e565b60408051602080825283518183015283519192839290830191858101910280838360005b8381101561024257818101518382015260200161022a565b505050509050019250505060405180910390f35b34801561026257600080fd5b506100c26004803603602081101561027957600080fd5b50356109d0565b34801561028c57600080fd5b506100c2610a18565b3480156102a157600080fd5b506100c2600480360360608110156102b857600080fd5b8135916020810135918101906060810160408201356401000000008111156102df57600080fd5b8201836020820111156102f157600080fd5b8035906020019184600183028401116401000000008311171561031357600080fd5b91908080601f016020809104026020016040519081016040528093929190818152602001838380828437600092019190915250929550610bae945050505050565b34801561036057600080fd5b5061037e6004803603602081101561037757600080fd5b5035610be4565b005b34801561038c57600080fd5b506103aa600480360360208110156103a357600080fd5b5035610c31565b6040518080602001806020018060200180602001858103855289818151815260200191508051906020019060200280838360005b838110156103f65781810151838201526020016103de565b50505050905001858103845288818151815260200191508051906020019060200280838360005b8381101561043557818101518382015260200161041d565b50505050905001858103835287818151815260200191508051906020019060200280838360005b8381101561047457818101518382015260200161045c565b50505050905001858103825286818151815260200191508051906020019060200280838360005b838110156104b357818101518382015260200161049b565b505050509050019850505050505050505060405180910390f35b3480156104d957600080fd5b506100c2610e32565b3480156104ee57600080fd5b506100c2610f7b565b34801561050357600080fd5b506100c26004803603602081101561051a57600080fd5b81019060208101813564010000000081111561053557600080fd5b82018360208201111561054757600080fd5b8035906020019184600183028401116401000000008311171561056957600080fd5b91908080601f0160208091040260200160405190810160405280939291908181526020018383808284376000920191909152509295506110df945050505050565b60006105b66000611133565b60010190506105cc60008263ffffffff61113a16565b600260205260008181526040812060008051602061230f833981519152915b6105f483611133565b8110156106165761060e826001830163ffffffff61126616565b6001016105eb565b5060005b61062683600301611133565b8110156106c1576000610642600385018363ffffffff6112df16565b6000818152600586016020908152604080832080548452600289019092528083206001830154845292206004808401549082015494955091939091108015906106b057835460018501546040805160208101909152600081526106ae928a92909163ffffffff61130616565b505b50506001909301925061061a915050565b50505090565b6000818152600260205260408120606091829182916106e582611133565b905060006106f583600301611133565b905081604051908082528060200260200182016040528015610721578160200160208202803883390190505b5095508060405190808252806020026020018201604052801561074e578160200160208202803883390190505b5094508060405190808252806020026020018201604052801561077b578160200160208202803883390190505b50935060005b61078a84611133565b8110156107c1576107a1848263ffffffff6112df16565b87518890839081106107af57fe5b60209081029091010152600101610781565b5060005b6107d184600301611133565b8110156108435760006107ed600386018363ffffffff6112df16565b6000818152600587016020526040902080548951929350909189908590811061081257fe5b602090810290910101526001810154875188908590811061082f57fe5b6020908102909101015250506001016107c5565b505050509193909250565b6000818152600260209081526040808320600654845260078352818420600454855260059093529083206060939192915b61088884611133565b8110156108ba576108b16108a2858363ffffffff6112df16565b8390600363ffffffff61146b16565b5060010161087f565b506004805460018082019092556006805492830190556108da918761148d565b6108e382611133565b60405190808252806020026020018201604052801561090c578160200160208202803883390190505b50935060005b61091b83611133565b81101561095257610932838263ffffffff6112df16565b855186908390811061094057fe5b60209081029091010152600101610912565b507f300a3be7ae677594a5a86baad0f39c1cab903a393d44e74e6c26578339f21e94846040518080602001828103825283818151815260200191508051906020019060200280838360005b838110156109b557818101518382015260200161099d565b505050509050019250505060405180910390a1505050919050565b60016000908152600260205260008051602061230f833981519152816109fc828563ffffffff6112df16565b6000908152600290920160205250604090206004015492915050565b6000610a246000611133565b6001019050610a3a60008263ffffffff61113a16565b600260205260008181526040812060008051602061230f833981519152915b610a6283611133565b811015610a8457610a7c826001830163ffffffff61126616565b600101610a59565b5060005b610a9483600301611133565b8110156106c1576000610ab0600385018363ffffffff6112df16565b60008181526005860160208181526040808420805480865260028b0190935281852060018201548087529286206004808301549082015498995092979196909592909111159390928391610b049190611cf9565b815260200190815260200160002090506000808260000154118015610b2d575060008260010154115b90508280610b39575080155b15610b695785546001870154604080516020810190915260008152610b67928c92909163ffffffff61130616565b505b821515610b9b5760018601548654604080516020810190915260008152610b99928c92909163ffffffff61130616565b505b505060019095019450610a889350505050565b60016000908152600260205260008051602061230f833981519152610bdb8186868663ffffffff61130616565b95945050505050565b6001600052600260205260008051602061230f833981519152610c0d818363ffffffff611d0816565b336000908152600360205260409020610c2c818463ffffffff61113a16565b505050565b600081815260026020526040812060609182918291829190610c5282611133565b90506000610c6283600301611133565b905081604051908082528060200260200182016040528015610c8e578160200160208202803883390190505b50965081604051908082528060200260200182016040528015610cbb578160200160208202803883390190505b50955080604051908082528060200260200182016040528015610ce8578160200160208202803883390190505b50945080604051908082528060200260200182016040528015610d15578160200160208202803883390190505b50935060005b610d2484611133565b811015610da557610d3b848263ffffffff6112df16565b8851899083908110610d4957fe5b60209081029091010152875160028501906000908a9084908110610d6957fe5b906020019060200201518152602001908152602001600020600401548782815181101515610d9357fe5b60209081029091010152600101610d1b565b5060005b610db584600301611133565b811015610e27576000610dd1600386018363ffffffff6112df16565b60008181526005870160205260409020805489519293509091899085908110610df657fe5b6020908102909101015260018101548751889085908110610e1357fe5b602090810290910101525050600101610da9565b505050509193509193565b6000610e3e6000611133565b6001019050610e5460008263ffffffff61113a16565b600260205260008181526040812060008051602061230f833981519152915b610e7c83611133565b811015610e9e57610e96826001830163ffffffff61126616565b600101610e73565b5060005b610eae83600301611133565b8110156106c1576000610eca600385018363ffffffff6112df16565b600081815260058601602090815260408083208054845260028901909252808320600183015484529220600480840154908201549495509193909110801590610f385783546001850154604080516020810190915260008152610f36928a92909163ffffffff61130616565b505b801515610f6a5760018401548454604080516020810190915260008152610f68928a92909163ffffffff61130616565b505b505060019093019250610ea2915050565b6000610f876000611133565b6001019050610f9d60008263ffffffff61113a16565b600260205260008181526040812060008051602061230f833981519152915b610fc583611133565b811015610fe757610fdf826001830163ffffffff61126616565b600101610fbc565b5060005b610ff783600301611133565b8110156106c1576000611013600385018363ffffffff6112df16565b60008181526005860160208181526040808420805480865260028b01909352818520600182015480875292862060048083015490820154989950929791969095929091111593909283916110679190611cf9565b815260200190815260200160002090506000808260000154118015611090575060008260010154115b9050828061109c575080155b156110cc57855460018701546040805160208101909152600081526110ca928c92909163ffffffff61130616565b505b505060019095019450610feb9350505050565b60016000908152600260205260008051602061230f83398151915261110a818463ffffffff611d8b16565b33600090815260036020526040902090925061112c818463ffffffff61113a16565b5050919050565b6001015490565b8015156111b7576040805160e560020a62461bcd02815260206004820152602860248201527f556e6f7264657265644b65795365742831303029202d204b65792063616e6e6f60448201527f7420626520307830000000000000000000000000000000000000000000000000606482015290519081900360840190fd5b6111c18282611de4565b1561123c576040805160e560020a62461bcd02815260206004820152603560248201527f556e6f7264657265644b65795365742831303129202d204b657920616c72656160448201527f64792065786973747320696e20746865207365742e0000000000000000000000606482015290519081900360840190fd5b60018281018054918201815560009081526020808220830184905592815292909152604090912055565b611276828263ffffffff611de416565b156112cb576040805160e560020a62461bcd02815260206004820152601460248201527f4e6f646520616c7265616479206578697374732e000000000000000000000000604482015290519081900360640190fd5b6112db828263ffffffff61113a16565b5050565b600082600101828154811015156112f257fe5b906000526020600020015490505b92915050565b6000611318858563ffffffff611de416565b151561136e576040805160e560020a62461bcd02815260206004820152601160248201527f556e6b6e6f776e20736f7572636549642e000000000000000000000000000000604482015290519081900360640190fd5b61137e858463ffffffff611de416565b15156113d4576040805160e560020a62461bcd02815260206004820152601160248201527f556e6b6e6f776e2074617267657449642e000000000000000000000000000000604482015290519081900360640190fd5b6113de8484611cf9565b90506113f3600386018263ffffffff61113a16565b600081815260058601602090815260409091208351909161141b916002840191860190612273565b50848155600181018490556000858152600280880160205260408083208784529220906114509083018563ffffffff61113a16565b611460818563ffffffff61113a16565b505050949350505050565b6000611483848484600481111561147e57fe5b611e2e565b90505b9392505050565b600081815260026020908152604080832086845260059283905292819020815183815260c0810190925291606091908160200160208202803883390190505090505b8060008151811015156114de57fe5b906020019060200201511515611c4d57606060006114fb88611ec8565b90925090506000811161152d57600183600081518110151561151957fe5b911515602092830290910190910152611c46565b825160009081908590600190811061154157fe5b91151560209283029091019091015260005b8281108015611578575084600181518110151561156c57fe5b90602001906020020151155b156116e457838181518110151561158b57fe5b602090810290910181015160008181526002808b0190935260408120885192955092909188919081106115ba57fe5b91151560209283029091019091015260005b6115d582611133565b811080156115f957508660028151811015156115ed57fe5b90602001906020020151155b156116a257600060058a0181611615858563ffffffff6112df16565b8152602081019190915260400160002090506001815461163c908b9063ffffffff611f7a16565b600481111561164757fe5b14158015611673575060048154611665908b9063ffffffff611f7a16565b600481111561167057fe5b14155b1561169957600188600281518110151561168957fe5b9115156020928302909101909101525b506001016115cc565b508560028151811015156116b257fe5b90602001906020020151158660018151811015156116cc57fe5b91151560209283029091019091015250600101611553565b508360018151811015156116f457fe5b9060200190602002015115156117ef576000805b838110156117ec576000886002016000878481518110151561172657fe5b6020908102909101810151825281019190915260400160009081209150805b61175183600201611133565b8110156117bb57600060058c0181611772600287018563ffffffff6112df16565b81526020810191909152604001600020905060018082015461179b908d9063ffffffff611f7a16565b60048111156117a657fe5b146117b2576001909201915b50600101611745565b50838111156117e25780935086838151811015156117d557fe5b9060200190602002015194505b5050600101611708565b50505b60048054600181019091556000818152600560205260408120905b61181388611f91565b81101561184e5760008061182d8a8463ffffffff611f9c16565b909250905061184384838363ffffffff61146b16565b50505060010161180a565b506118618184600063ffffffff61146b16565b5060008381526002890160205260408120905b61188082600201611133565b8110156118d557600060058b01816118a1600286018563ffffffff6112df16565b815260208101919091526040016000206001818101549192506118cb91869163ffffffff61146b16565b5050600101611874565b5060008760038151811015156118e757fe5b91151560209283029091019091015260005b61190282611133565b81108015611926575087600381518110151561191a57fe5b90602001906020020151155b15611ad657600060058b0181611942858563ffffffff6112df16565b8152602081019190915260400160002090506002815461196990869063ffffffff611f7a16565b600481111561197457fe5b148061199d57506003815461199090869063ffffffff611f7a16565b600481111561199b57fe5b145b15611acd5780546119b7908590600463ffffffff61146b16565b508054600090815260028c016020526040902089516001908b9060039081106119dc57fe5b91151560209283029091019091015260005b6119f782611133565b81108015611a1a57508a6003815181101515611a0f57fe5b906020019060200201515b15611a9857600060058e0181611a36858563ffffffff6112df16565b81526020810191909152604001600020905060038154611a5d90899063ffffffff611f7a16565b6004811115611a6857fe5b1415611a8f5760008c6003815181101515611a7f57fe5b9115156020928302909101909101525b506001016119ee565b50896003815181101515611aa857fe5b9060200190602002015115611acb57611ac98b88600263ffffffff61146b16565b505b505b506001016118f9565b50866003815181101515611ae657fe5b906020019060200201511515611c4157611b01838c8c61148d565b6000876004815181101515611b1257fe5b91151560209283029091019091015260005b611b2d82611133565b81108015611b515750876004815181101515611b4557fe5b90602001906020020151155b15611c0a57600060058b0181611b6d858563ffffffff6112df16565b81526020810191909152604001600020905060028154611b94908c9063ffffffff611f7a16565b6004811115611b9f57fe5b1480611bc8575060038154611bbb908c9063ffffffff611f7a16565b6004811115611bc657fe5b145b15611c0157611bdf8a87600463ffffffff61146b16565b506001896004815181101515611bf157fe5b9115156020928302909101909101525b50600101611b24565b50866004815181101515611c1a57fe5b906020019060200201511515611c41576000838152600560205260409020929b509196508a915b505050505b50506114cf565b6000611c5887611fca565b91505060008111611cf05760606000611c7089612075565b60008a81526007602052604081209294509092505b82811015611ceb57611cb58482815181101515611c9e57fe5b60209081029091010151839063ffffffff611de416565b1515611ce357611ce38482815181101515611ccc57fe5b60209081029091010151839063ffffffff61113a16565b600101611c85565b505050505b50505050505050565b60029082016001810102040190565b611d18828263ffffffff611de416565b1515611d6e576040805160e560020a62461bcd02815260206004820152600f60248201527f556e6b6e6f776e206e6f646549642e0000000000000000000000000000000000604482015290519081900360640190fd5b600090815260029091016020526040902060040180546001019055565b6000611d9683611133565b6001019050611dab838263ffffffff61113a16565b6000818152600284016020908152604090912083519091611dd3916005840191860190612273565b506004018054600101905592915050565b60018201546000901515611dfa57506000611300565b6000828152602084905260409020546001840180548492908110611e1a57fe5b906000526020600020015414905092915050565b6000828152600184016020526040812054801515611e95575050604080518082018252838152602080820184815286546001818101895560008981528481209551600290930290950191825591519082015586548684528188019092529290912055611486565b8454839086906000198401908110611ea957fe5b9060005260206000209060020201600101819055506000915050611486565b600081815260056020526040812060609190611ee381611f91565b604051908082528060200260200182016040528015611f0c578160200160208202803883390190505b50925060009150815b8351811015611f7357600080611f31848463ffffffff611f9c16565b90925090506003816004811115611f4457fe5b1415611f69578551600186019583918891908110611f5e57fe5b602090810290910101525b5050600101611f15565b5050915091565b6000611f868383612120565b600481111561148657fe5b6000611300826121b5565b6000808080611fab86866121b9565b909250905081816004811115611fbd57fe5b9350935050509250929050565b600081815260056020526040812060609190611fe581611f91565b60405190808252806020026020018201604052801561200e578160200160208202803883390190505b50925060009150815b8351811015611f7357600080612033848463ffffffff611f9c16565b9092509050600481600481111561204657fe5b141561206b57855160018601958391889190811061206057fe5b602090810290910101525b5050600101612017565b60008181526005602052604081206060919061209081611f91565b6040519080825280602002602001820160405280156120b9578160200160208202803883390190505b50925060009150815b8351811015611f73576000806120de848463ffffffff611f9c16565b909250905060008160048111156120f157fe5b141561211657855160018601958391889190811061210b57fe5b602090810290910101525b50506001016120c2565b6000818152600183016020526040812054801515612188576040805160e560020a62461bcd02815260206004820152601e60248201527f456e756d657261626c654d61703a206e6f6e6578697374656e74206b65790000604482015290519081900360640190fd5b83548490600019830190811061219a57fe5b90600052602060002090600202016001015491505092915050565b5490565b81546000908190831061223c576040805160e560020a62461bcd02815260206004820152602260248201527f456e756d657261626c654d61703a20696e646578206f7574206f6620626f756e60448201527f6473000000000000000000000000000000000000000000000000000000000000606482015290519081900360840190fd5b835460009085908590811061224d57fe5b906000526020600020906002020190508060000154816001015492509250509250929050565b828054600181600116156101000203166002900490600052602060002090601f016020900481019282601f106122b457805160ff19168380011785556122e1565b828001600101855582156122e1579182015b828111156122e15782518255916020019190600101906122c6565b506122ed9291506122f1565b5090565b61230b91905b808211156122ed57600081556001016122f7565b9056fee90b7bceb6e7df5418fb78d8ee546e97c83a08bbccc01a0644d599ccd2a7c2e0a165627a7a72305820a90bacf30246ea9cd004b32472901e062047fbb45c165a287bd11558084f977e0029",
  "source": "// SPDX-License-Identifier: MIT\r\n\r\npragma solidity ^0.5.1;\r\n\r\nimport \"./DirectedGraph.sol\";\r\nimport \"./EnumerableMap.sol\";\r\n\r\ncontract Tinkering {\r\n    using DirectedGraph for DirectedGraph.Graph;\r\n    using HitchensUnorderedKeySetLib for HitchensUnorderedKeySetLib.Set;\r\n    using EMap for EMap.LabelMap;\r\n\r\n    // uint256 disNum;\r\n    // mapping(uint256 => DisStruct) disputes;\r\n\r\n    // struct DisStruct {\r\n    //     HitchensUnorderedKeySetLib.Set graphsIds;\r\n    //     mapping(uint256 => DirectedGraph.Graph) graphs;\r\n\r\n    //     // Arguments Sets\r\n    //     mapping(address => HitchensUnorderedKeySetLib.Set) agentsArguments;\r\n\r\n    //     uint256 labsNum;\r\n    //     mapping(uint256 => EMap.LabelMap) labs;\r\n    //     uint256 prefExtensionsNum;\r\n    //     mapping(uint256 => HitchensUnorderedKeySetLib.Set) prefExtensions;\r\n    // }\r\n\r\n    HitchensUnorderedKeySetLib.Set graphsIds;\r\n    mapping(uint256 => DirectedGraph.Graph) graphs;\r\n\r\n    // Arguments Sets\r\n    mapping(address => HitchensUnorderedKeySetLib.Set) agentsArguments;\r\n\r\n    uint256 labsNum;\r\n    mapping(uint256 => EMap.LabelMap) labs;\r\n    uint256 prefExtensionsNum;\r\n    mapping(uint256 => HitchensUnorderedKeySetLib.Set) prefExtensions;\r\n\r\n    event PreferredExtensions(uint256[] args);\r\n\r\n    constructor() public {\r\n        graphsIds.insert(bytes32(uint256(1)));\r\n    }\r\n\r\n    // function newDis() public returns (uint256 disId) {\r\n    //     disId = disNum++;\r\n    //     DisStruct storage dis = disputes[disId];\r\n    //     dis.graphsIds.insert(bytes32(uint256(1)));\r\n    // }\r\n\r\n    // function instantiateDis(uint256 disID) {\r\n    //     DisStruct storage dis = disputes[disID];\r\n    //     graphsIds = dis.graphsIds;\r\n    //     graphs = dis.graphs;\r\n    //     agentsArguments = dis.agentsArguments;\r\n    //     labsNum = dis.labsNum;\r\n    //     prefExtensionsNum = dis.prefExtensionsNum;\r\n    //     prefExtensions = dis.prefExtensions;\r\n    // }\r\n\r\n    ////////////////////\r\n    function getNodeValue(uint256 argID) \r\n        public\r\n        view\r\n        returns (uint256 value)\r\n    {\r\n        // assumes argID exists\r\n        \r\n        DirectedGraph.Graph storage graph = graphs[1];\r\n        uint256 nodeId = uint256(graph.nodesIds.keyAtIndex(argID));\r\n        DirectedGraph.Node storage node = graph.nodes[nodeId];\r\n        value = node.value;\r\n    }\r\n    ///////////////////////////////\r\n\r\n    function insertArgument(string memory metadata)\r\n        public\r\n        returns (uint256 argId)\r\n    {\r\n        DirectedGraph.Graph storage graph = graphs[1];\r\n        argId = graph.insertNode(metadata);\r\n\r\n        HitchensUnorderedKeySetLib.Set storage agentArgs = agentsArguments[\r\n            msg.sender\r\n        ];\r\n        agentArgs.insert(bytes32(argId));\r\n    }\r\n\r\n    function supportArgument(uint256 argId) public {\r\n        DirectedGraph.Graph storage graph = graphs[1];\r\n        graph.incrementValue(argId);\r\n\r\n        HitchensUnorderedKeySetLib.Set storage agentArgs = agentsArguments[\r\n            msg.sender\r\n        ];\r\n        agentArgs.insert(bytes32(argId));\r\n    }\r\n\r\n    function insertAttack(\r\n        uint256 sourceId,\r\n        uint256 targetId,\r\n        string memory metadata\r\n    ) public returns (uint256 edgeId) {\r\n        DirectedGraph.Graph storage graph = graphs[1];\r\n        edgeId = graph.insertEdge(sourceId, targetId, metadata);\r\n    }\r\n\r\n\r\n    // reduction of PAF to AF; PR(PAF)=AF\r\n    function pafReductionToAfPr1() public returns (uint256 graphId) {\r\n        // This function takes an argumentation graph with agent votes on arguments\r\n        // And for each edge consideres the support for the target and the source\r\n        // if the target does not have more support than the source then the attack will be added.\r\n        // !(sup(t)>sup(s)) => s->t\r\n        // this version also rejects the nodes if the attack is rejected\r\n        graphId = graphsIds.count() + 1;\r\n        graphsIds.insert(bytes32(graphId));\r\n\r\n        DirectedGraph.Graph storage paf = graphs[1];\r\n        DirectedGraph.Graph storage af = graphs[graphId];\r\n        \r\n        for (uint256 j = 0; j < paf.nodesIds.count(); j++) {\r\n            af.insertNodeWithId(j+1);\r\n        }\r\n\r\n        for (uint256 i = 0; i < paf.edgesIds.count(); i++) {\r\n            uint256 edgeId = uint256(paf.edgesIds.keyAtIndex(i));\r\n            DirectedGraph.Edge storage edge = paf.edges[edgeId];\r\n\r\n            DirectedGraph.Node storage s = paf.nodes[edge.source];\r\n            DirectedGraph.Node storage t = paf.nodes[edge.target];\r\n            bool notBpreferredToA = !(t.value > s.value);\r\n\r\n            if (notBpreferredToA) {\r\n                //insert to af\r\n                af.insertEdge(edge.source, edge.target, \"\");\r\n            }\r\n        }\r\n    }\r\n\r\n    // reduction of PAF to AF; PR(PAF)=AF\r\n    function pafReductionToAfPr2() public returns (uint256 graphId) {\r\n        // This function takes an argumentation graph with agent votes on arguments\r\n        // And for each edge consideres the support for the target and the source\r\n        // if the target does not have more support than the source then the attack will be added.\r\n        // !(sup(t)>sup(s)) => s->t\r\n        graphId = graphsIds.count() + 1;\r\n        graphsIds.insert(bytes32(graphId));\r\n\r\n        DirectedGraph.Graph storage paf = graphs[1];\r\n        DirectedGraph.Graph storage af = graphs[graphId];\r\n\r\n        for (uint256 j = 0; j < paf.nodesIds.count(); j++) {\r\n            af.insertNodeWithId(j+1);\r\n        }\r\n\r\n        for (uint256 i = 0; i < paf.edgesIds.count(); i++) {\r\n            uint256 edgeId = uint256(paf.edgesIds.keyAtIndex(i));\r\n            DirectedGraph.Edge storage edge = paf.edges[edgeId];\r\n\r\n            DirectedGraph.Node storage s = paf.nodes[edge.source];\r\n            DirectedGraph.Node storage t = paf.nodes[edge.target];\r\n            bool notBpreferredToA = !(t.value > s.value);\r\n\r\n            // DirectedGraph.Edge storage edgeReverse = paf.edges[\r\n            //     DirectedGraph.cantorPairing(edge.target, edge.source)\r\n            // ];\r\n            // bool notBtoA = edgeReverse.source > 0 && edgeReverse.target > 0;\r\n\r\n            //insert to af\r\n            if (notBpreferredToA) {\r\n                af.insertEdge(edge.source, edge.target, \"\");\r\n            }\r\n            \r\n            if (!notBpreferredToA) {\r\n                af.insertEdge(edge.target, edge.source, \"\");\r\n            }\r\n        }\r\n    }\r\n\r\n    // reduction of \r\n    function pafReductionToAfPr3() public returns (uint256 graphId) {\r\n        //\r\n        // !(sup(t)>sup(s)) || (sup(t)>0 && sup(s)>0) => s->t\r\n        graphId = graphsIds.count() + 1;\r\n        graphsIds.insert(bytes32(graphId));\r\n\r\n        DirectedGraph.Graph storage paf = graphs[1];\r\n        DirectedGraph.Graph storage af = graphs[graphId];\r\n\r\n        for (uint256 j = 0; j < paf.nodesIds.count(); j++) {\r\n            af.insertNodeWithId(j+1);\r\n        }\r\n\r\n        for (uint256 i = 0; i < paf.edgesIds.count(); i++) {\r\n            uint256 edgeId = uint256(paf.edgesIds.keyAtIndex(i));\r\n            DirectedGraph.Edge storage edge = paf.edges[edgeId];\r\n\r\n            DirectedGraph.Node storage s = paf.nodes[edge.source];\r\n            DirectedGraph.Node storage t = paf.nodes[edge.target];\r\n            bool notBpreferredToA = !(t.value > s.value);\r\n\r\n            DirectedGraph.Edge storage edgeReverse = paf.edges[\r\n                DirectedGraph.cantorPairing(edge.target, edge.source)\r\n            ];\r\n            bool notBtoA = edgeReverse.source > 0 && edgeReverse.target > 0;\r\n\r\n            //insert to af\r\n            if (notBpreferredToA || !notBtoA) {\r\n                af.insertEdge(edge.source, edge.target, \"\");\r\n            }\r\n        }\r\n    }\r\n\r\n        // reduction of \r\n    function pafReductionToAfPr4() public returns (uint256 graphId) {\r\n        //\r\n        // !(sup(t)>sup(s)) || (sup(t)>0 && sup(s)>0) => s->t\r\n        graphId = graphsIds.count() + 1;\r\n        graphsIds.insert(bytes32(graphId));\r\n\r\n        DirectedGraph.Graph storage paf = graphs[1];\r\n        DirectedGraph.Graph storage af = graphs[graphId];\r\n\r\n        for (uint256 j = 0; j < paf.nodesIds.count(); j++) {\r\n            af.insertNodeWithId(j+1);\r\n        }\r\n\r\n        for (uint256 i = 0; i < paf.edgesIds.count(); i++) {\r\n            uint256 edgeId = uint256(paf.edgesIds.keyAtIndex(i));\r\n            DirectedGraph.Edge storage edge = paf.edges[edgeId];\r\n\r\n            DirectedGraph.Node storage s = paf.nodes[edge.source];\r\n            DirectedGraph.Node storage t = paf.nodes[edge.target];\r\n            bool notBpreferredToA = !(t.value > s.value);\r\n\r\n            DirectedGraph.Edge storage edgeReverse = paf.edges[\r\n                DirectedGraph.cantorPairing(edge.target, edge.source)\r\n            ];\r\n            bool notBtoA = edgeReverse.source > 0 && edgeReverse.target > 0;\r\n\r\n            //insert to af\r\n            if (notBpreferredToA || !notBtoA) {\r\n                af.insertEdge(edge.source, edge.target, \"\");\r\n            }\r\n            if (!notBpreferredToA) {\r\n                af.insertEdge(edge.target, edge.source, \"\");\r\n            }\r\n        }\r\n    }\r\n\r\n    function getGraph(uint256 graphId)\r\n        public\r\n        view\r\n        returns (\r\n            uint256[] memory nodes,\r\n            uint256[] memory edgesSource,\r\n            uint256[] memory edgesTarget\r\n        )\r\n    {\r\n        DirectedGraph.Graph storage graph = graphs[graphId];\r\n        uint256 nodesCount = graph.nodesIds.count();\r\n        uint256 edgesCount = graph.edgesIds.count();\r\n\r\n        nodes = new uint256[](nodesCount);\r\n        edgesSource = new uint256[](edgesCount);\r\n        edgesTarget = new uint256[](edgesCount);\r\n\r\n        for (uint256 i = 0; i < graph.nodesIds.count(); i++) {\r\n            nodes[i] = uint256(graph.nodesIds.keyAtIndex(i));\r\n        }\r\n\r\n        for (uint256 i = 0; i < graph.edgesIds.count(); i++) {\r\n            uint256 edgeId = uint256(graph.edgesIds.keyAtIndex(i));\r\n            DirectedGraph.Edge storage edge = graph.edges[edgeId];\r\n            edgesSource[i] = edge.source;\r\n            edgesTarget[i] = edge.target;\r\n        }\r\n    }\r\n\r\n    /////////////////////////////////////////////\r\n    function getGraph2(uint256 graphId)\r\n        public\r\n        view\r\n        returns (\r\n            uint256[] memory nodes,\r\n            uint256[] memory votes,\r\n            uint256[] memory edgesSource,\r\n            uint256[] memory edgesTarget\r\n        )\r\n    {\r\n        DirectedGraph.Graph storage graph = graphs[graphId];\r\n        uint256 nodesCount = graph.nodesIds.count();\r\n        uint256 edgesCount = graph.edgesIds.count();\r\n\r\n        nodes = new uint256[](nodesCount);\r\n        votes = new uint256[](nodesCount);\r\n        edgesSource = new uint256[](edgesCount);\r\n        edgesTarget = new uint256[](edgesCount);\r\n\r\n        for (uint256 i = 0; i < graph.nodesIds.count(); i++) {\r\n            nodes[i] = uint256(graph.nodesIds.keyAtIndex(i));\r\n            votes[i] = uint256(graph.nodes[nodes[i]].value);\r\n        }\r\n\r\n        for (uint256 i = 0; i < graph.edgesIds.count(); i++) {\r\n            uint256 edgeId = uint256(graph.edgesIds.keyAtIndex(i));\r\n            DirectedGraph.Edge storage edge = graph.edges[edgeId];\r\n            edgesSource[i] = edge.source;\r\n            edgesTarget[i] = edge.target;\r\n        }\r\n    }\r\n    ///////////////////////////////////////////\r\n\r\n    function enumeratingPreferredExtensions(uint256 graphId)\r\n        public\r\n        returns (uint256[] memory args)\r\n    {\r\n        DirectedGraph.Graph storage graph = graphs[graphId];\r\n        HitchensUnorderedKeySetLib.Set storage ext = prefExtensions[\r\n            prefExtensionsNum\r\n        ];\r\n        EMap.LabelMap storage lab = labs[labsNum];\r\n        for (uint256 i = 0; i < graph.nodesIds.count(); i++) {\r\n            lab.set(uint256(graph.nodesIds.keyAtIndex(i)), EMap.Label.BLANK);\r\n        }\r\n        _findPreferredExtensions(labsNum++, prefExtensionsNum++, graphId);\r\n\r\n        args = new uint256[](ext.count());\r\n        for (uint256 i = 0; i < ext.count(); i++) {\r\n            args[i] = uint256(ext.keyAtIndex(i));\r\n        }\r\n\r\n        emit PreferredExtensions(args);\r\n    }\r\n\r\n    function _findPreferredExtensions(\r\n        uint256 labId,\r\n        uint256 prefExtensionId,\r\n        uint256 graphId\r\n    ) private {\r\n        DirectedGraph.Graph storage graph = graphs[graphId];\r\n        EMap.LabelMap storage lab = labs[labId];\r\n        bool[] memory flags = new bool[](5);\r\n\r\n        // while y  A : Lab(y) = BLANK do\r\n        while (!flags[0]) {\r\n            (uint256[] memory argIds, uint256 argIdsLen) = _getBlank(labId);\r\n            if (argIdsLen <= 0) {\r\n                flags[0] = true;\r\n            } else {\r\n                uint256 y = 0;\r\n                // select y with Lab(y) = BLANK and z  {y} Lab(z)  {OUT, MUST_OUT}\r\n                flags[1] = false;\r\n                for (uint256 i = 0; i < argIdsLen && !flags[1]; i++) {\r\n                    y = argIds[i];\r\n                    DirectedGraph.Node storage y_temp = graph.nodes[y];\r\n                    flags[2] = false;\r\n                    for (\r\n                        uint256 j = 0;\r\n                        j < y_temp.edgesIn.count() && !flags[2];\r\n                        j++\r\n                    ) {\r\n                        DirectedGraph.Edge storage edge = graph.edges[\r\n                            uint256(y_temp.edgesIn.keyAtIndex(j))\r\n                        ];\r\n                        if (\r\n                            lab.get(edge.source) != EMap.Label.OUT &&\r\n                            lab.get(edge.source) != EMap.Label.MUST_OUT\r\n                        ) {\r\n                            flags[2] = true;\r\n                        }\r\n                    }\r\n                    flags[1] = !flags[2];\r\n                }\r\n\r\n                // otherwise select y with Lab(y) = BLANK s.t. z  A : Lab(z) = BLANK,\r\n                //|{x : x  {y}+  Lab(x)!= OUT }|  |{x : x  {z}+  Lab(x) != OUT }|;\r\n                if (!flags[1]) {\r\n                    uint256 max = 0;\r\n                    for (uint256 i = 0; i < argIdsLen; i++) {\r\n                        DirectedGraph.Node storage y_temp = graph.nodes[\r\n                            argIds[i]\r\n                        ];\r\n                        uint256 y_temp_num = 0;\r\n                        for (uint256 j = 0; j < y_temp.edgesOut.count(); j++) {\r\n                            DirectedGraph.Edge storage edge = graph.edges[\r\n                                uint256(y_temp.edgesOut.keyAtIndex(j))\r\n                            ];\r\n                            if (lab.get(edge.target) != EMap.Label.OUT) {\r\n                                y_temp_num++;\r\n                            }\r\n                        }\r\n                        if (y_temp_num > max) {\r\n                            max = y_temp_num;\r\n                            y = argIds[i];\r\n                        }\r\n                    }\r\n                }\r\n                // Lab  Lab;\r\n                uint256 lab1Id = labsNum++;\r\n                EMap.LabelMap storage lab1 = labs[lab1Id];\r\n                for (uint256 i = 0; i < lab.length(); i++) {\r\n                    (uint256 arg, EMap.Label argLabel) = lab.at(i);\r\n                    lab1.set(arg, argLabel);\r\n                }\r\n                // Lab (y)  IN;\r\n                lab1.set(y, EMap.Label.IN);\r\n                // foreach z  {y}+ do Lab(z)  OUT ;\r\n                DirectedGraph.Node storage y_node = graph.nodes[y];\r\n                for (uint256 j = 0; j < y_node.edgesOut.count(); j++) {\r\n                    DirectedGraph.Edge storage edge = graph.edges[\r\n                        uint256(y_node.edgesOut.keyAtIndex(j))\r\n                    ];\r\n                    lab1.set(edge.target, EMap.Label.OUT);\r\n                }\r\n                // foreach z  {y} do\r\n                flags[3] = false;\r\n                for (\r\n                    uint256 j = 0;\r\n                    j < y_node.edgesIn.count() && !flags[3];\r\n                    j++\r\n                ) {\r\n                    DirectedGraph.Edge storage edge = graph.edges[\r\n                        uint256(y_node.edgesIn.keyAtIndex(j))\r\n                    ];\r\n                    // if Lab (z)  {UNDEC, BLANK} then Lab (z)  MUST OUT ;\r\n                    if (\r\n                        lab1.get(edge.source) == EMap.Label.UNDEC ||\r\n                        lab1.get(edge.source) == EMap.Label.BLANK\r\n                    ) {\r\n                        lab1.set(edge.source, EMap.Label.MUST_OUT);\r\n                        // if !w  {z} : Lab (w) = BLANK then Lab(y)  UNDEC;\r\n                        DirectedGraph.Node storage z_node = graph.nodes[\r\n                            edge.source\r\n                        ];\r\n                        flags[3] = true;\r\n                        for (\r\n                            uint256 k = 0;\r\n                            k < z_node.edgesIn.count() && flags[3];\r\n                            k++\r\n                        ) {\r\n                            DirectedGraph.Edge storage edgeZ = graph.edges[\r\n                                uint256(z_node.edgesIn.keyAtIndex(k))\r\n                            ];\r\n                            if (lab1.get(edgeZ.source) == EMap.Label.BLANK) {\r\n                                flags[3] = false;\r\n                            }\r\n                        }\r\n                        if (flags[3]) {\r\n                            lab.set(y, EMap.Label.UNDEC);\r\n                            // goto line 7;\r\n                        }\r\n                    }\r\n                }\r\n                if (!flags[3]) {\r\n                    // call find-preferred-extensions(Lab );\r\n                    _findPreferredExtensions(lab1Id, prefExtensionId, graphId);\r\n                    //if z  {y} : Lab(z)  {BLANK,UNDEC} then Lab(y)  UNDEC;\r\n                    flags[4] = false;\r\n                    for (\r\n                        uint256 j = 0;\r\n                        j < y_node.edgesIn.count() && !flags[4];\r\n                        j++\r\n                    ) {\r\n                        DirectedGraph.Edge storage edge = graph.edges[\r\n                            uint256(y_node.edgesIn.keyAtIndex(j))\r\n                        ];\r\n                        // if Lab (z)  {UNDEC, BLANK} then Lab (z)  MUST OUT ;\r\n                        if (\r\n                            lab.get(edge.source) == EMap.Label.UNDEC ||\r\n                            lab.get(edge.source) == EMap.Label.BLANK\r\n                        ) {\r\n                            lab.set(y, EMap.Label.MUST_OUT);\r\n                            flags[4] = true;\r\n                        }\r\n                    }\r\n                    // else Lab  Lab ;\r\n                    if (!flags[4]) {\r\n                        lab = labs[lab1Id];\r\n                        labId = lab1Id;\r\n                    }\r\n                }\r\n            }\r\n        }\r\n        // if  !x : Lab(x) = MUST OUT then\r\n        (, uint256 argMustOutIdsLen) = _getMustOut(labId);\r\n        if (argMustOutIdsLen <= 0) {\r\n            // S  {x | Lab(x) = IN};\r\n            (uint256[] memory argInIds, uint256 argINIdsLen) = _getIn(labId);\r\n            // if !T  Epreferred : S  T then Epreferred  Epreferred  {S};\r\n            HitchensUnorderedKeySetLib.Set storage ext = prefExtensions[\r\n                prefExtensionId\r\n            ];\r\n            for (uint256 i = 0; i < argINIdsLen; i++) {\r\n                if (!ext.exists(bytes32(argInIds[i]))) {\r\n                    ext.insert(bytes32(argInIds[i]));\r\n                }\r\n            }\r\n        }\r\n    }\r\n\r\n    function _getBlank(uint256 labId)\r\n        private\r\n        view\r\n        returns (uint256[] memory argIdsTemp, uint256 argIdsLenTemp)\r\n    {\r\n        EMap.LabelMap storage lab = labs[labId];\r\n        argIdsTemp = new uint256[](lab.length());\r\n        argIdsLenTemp = 0;\r\n        for (uint256 i = 0; i < argIdsTemp.length; i++) {\r\n            (uint256 arg, EMap.Label argLabel) = lab.at(i);\r\n            if (argLabel == EMap.Label.BLANK) {\r\n                argIdsTemp[argIdsLenTemp++] = arg;\r\n            }\r\n        }\r\n    }\r\n\r\n    function _getMustOut(uint256 labId)\r\n        private\r\n        view\r\n        returns (uint256[] memory argIdsTemp, uint256 argIdsLenTemp)\r\n    {\r\n        EMap.LabelMap storage lab = labs[labId];\r\n        argIdsTemp = new uint256[](lab.length());\r\n        argIdsLenTemp = 0;\r\n        for (uint256 i = 0; i < argIdsTemp.length; i++) {\r\n            (uint256 arg, EMap.Label argLabel) = lab.at(i);\r\n            if (argLabel == EMap.Label.MUST_OUT) {\r\n                argIdsTemp[argIdsLenTemp++] = arg;\r\n            }\r\n        }\r\n    }\r\n\r\n    function _getIn(uint256 labId)\r\n        private\r\n        view\r\n        returns (uint256[] memory argIdsTemp, uint256 argIdsLenTemp)\r\n    {\r\n        EMap.LabelMap storage lab = labs[labId];\r\n        argIdsTemp = new uint256[](lab.length());\r\n        argIdsLenTemp = 0;\r\n        for (uint256 i = 0; i < argIdsTemp.length; i++) {\r\n            (uint256 arg, EMap.Label argLabel) = lab.at(i);\r\n            if (argLabel == EMap.Label.IN) {\r\n                argIdsTemp[argIdsLenTemp++] = arg;\r\n            }\r\n        }\r\n    }\r\n}\r\n",
  "sourcePath": "C:\\Users\\vincent.dewit\\Documents\\Code\\IHiBO_2.0\\contracts\\Tinkering.sol",
  "compiler": {
    "name": "solc",
    "version": "0.5.1+commit.c8a2cb62.Emscripten.clang"
  },
  "schemaVersion": "3.4.16",
  "updatedAt": "2024-04-30T13:30:22.526Z",
  "networkType": "ethereum",
  "devdoc": {
    "methods": {}
  },
  "userdoc": {
    "methods": {
      "enumeratingPreferredExtensions(uint256)": {
        "notice": "////////////////////////////////////////"
      },
      "getGraph2(uint256)": {
        "notice": "//////////////////////////////////////////"
      },
      "getNodeValue(uint256)": {
        "notice": "/////////////////"
      },
      "insertArgument(string)": {
        "notice": "////////////////////////////"
      }
    }
  }
}